{
  "contractName": "CarNFT",
  "abi": [
    {
      "inputs": [],
      "stateMutability": "nonpayable",
      "type": "constructor"
    },
    {
      "anonymous": false,
      "inputs": [
        {
          "indexed": true,
          "internalType": "address",
          "name": "owner",
          "type": "address"
        },
        {
          "indexed": true,
          "internalType": "address",
          "name": "approved",
          "type": "address"
        },
        {
          "indexed": true,
          "internalType": "uint256",
          "name": "tokenId",
          "type": "uint256"
        }
      ],
      "name": "Approval",
      "type": "event"
    },
    {
      "anonymous": false,
      "inputs": [
        {
          "indexed": true,
          "internalType": "address",
          "name": "owner",
          "type": "address"
        },
        {
          "indexed": true,
          "internalType": "address",
          "name": "operator",
          "type": "address"
        },
        {
          "indexed": false,
          "internalType": "bool",
          "name": "approved",
          "type": "bool"
        }
      ],
      "name": "ApprovalForAll",
      "type": "event"
    },
    {
      "anonymous": false,
      "inputs": [
        {
          "indexed": false,
          "internalType": "uint256",
          "name": "_fromTokenId",
          "type": "uint256"
        },
        {
          "indexed": false,
          "internalType": "uint256",
          "name": "_toTokenId",
          "type": "uint256"
        }
      ],
      "name": "BatchMetadataUpdate",
      "type": "event"
    },
    {
      "anonymous": false,
      "inputs": [
        {
          "indexed": false,
          "internalType": "uint256",
          "name": "tokenId",
          "type": "uint256"
        },
        {
          "indexed": false,
          "internalType": "string",
          "name": "make",
          "type": "string"
        },
        {
          "indexed": false,
          "internalType": "string",
          "name": "model",
          "type": "string"
        },
        {
          "indexed": false,
          "internalType": "uint256",
          "name": "year",
          "type": "uint256"
        }
      ],
      "name": "CarNFTCreated",
      "type": "event"
    },
    {
      "anonymous": false,
      "inputs": [
        {
          "indexed": false,
          "internalType": "uint256",
          "name": "_tokenId",
          "type": "uint256"
        }
      ],
      "name": "MetadataUpdate",
      "type": "event"
    },
    {
      "anonymous": false,
      "inputs": [
        {
          "indexed": false,
          "internalType": "uint256",
          "name": "newTokenId",
          "type": "uint256"
        },
        {
          "indexed": false,
          "internalType": "uint256",
          "name": "carTokenId",
          "type": "uint256"
        },
        {
          "indexed": false,
          "internalType": "uint256",
          "name": "partTokenId",
          "type": "uint256"
        }
      ],
      "name": "NFTFused",
      "type": "event"
    },
    {
      "anonymous": false,
      "inputs": [
        {
          "indexed": true,
          "internalType": "address",
          "name": "previousOwner",
          "type": "address"
        },
        {
          "indexed": true,
          "internalType": "address",
          "name": "newOwner",
          "type": "address"
        }
      ],
      "name": "OwnershipTransferred",
      "type": "event"
    },
    {
      "anonymous": false,
      "inputs": [
        {
          "indexed": false,
          "internalType": "uint256",
          "name": "tokenId",
          "type": "uint256"
        },
        {
          "indexed": false,
          "internalType": "string",
          "name": "name",
          "type": "string"
        },
        {
          "indexed": false,
          "internalType": "string",
          "name": "typePart",
          "type": "string"
        },
        {
          "indexed": false,
          "internalType": "string",
          "name": "rank",
          "type": "string"
        }
      ],
      "name": "PartNFTCreated",
      "type": "event"
    },
    {
      "anonymous": false,
      "inputs": [
        {
          "indexed": true,
          "internalType": "address",
          "name": "from",
          "type": "address"
        },
        {
          "indexed": true,
          "internalType": "address",
          "name": "to",
          "type": "address"
        },
        {
          "indexed": true,
          "internalType": "uint256",
          "name": "tokenId",
          "type": "uint256"
        }
      ],
      "name": "Transfer",
      "type": "event"
    },
    {
      "inputs": [
        {
          "internalType": "address",
          "name": "to",
          "type": "address"
        },
        {
          "internalType": "uint256",
          "name": "tokenId",
          "type": "uint256"
        }
      ],
      "name": "approve",
      "outputs": [],
      "stateMutability": "nonpayable",
      "type": "function"
    },
    {
      "inputs": [
        {
          "internalType": "address",
          "name": "owner",
          "type": "address"
        }
      ],
      "name": "balanceOf",
      "outputs": [
        {
          "internalType": "uint256",
          "name": "",
          "type": "uint256"
        }
      ],
      "stateMutability": "view",
      "type": "function"
    },
    {
      "inputs": [
        {
          "internalType": "uint256",
          "name": "",
          "type": "uint256"
        }
      ],
      "name": "cars",
      "outputs": [
        {
          "internalType": "string",
          "name": "make",
          "type": "string"
        },
        {
          "internalType": "string",
          "name": "model",
          "type": "string"
        },
        {
          "internalType": "uint256",
          "name": "year",
          "type": "uint256"
        },
        {
          "internalType": "string",
          "name": "imageURI",
          "type": "string"
        },
        {
          "internalType": "string",
          "name": "desc",
          "type": "string"
        }
      ],
      "stateMutability": "view",
      "type": "function"
    },
    {
      "inputs": [
        {
          "internalType": "uint256",
          "name": "tokenId",
          "type": "uint256"
        }
      ],
      "name": "getApproved",
      "outputs": [
        {
          "internalType": "address",
          "name": "",
          "type": "address"
        }
      ],
      "stateMutability": "view",
      "type": "function"
    },
    {
      "inputs": [
        {
          "internalType": "address",
          "name": "owner",
          "type": "address"
        },
        {
          "internalType": "address",
          "name": "operator",
          "type": "address"
        }
      ],
      "name": "isApprovedForAll",
      "outputs": [
        {
          "internalType": "bool",
          "name": "",
          "type": "bool"
        }
      ],
      "stateMutability": "view",
      "type": "function"
    },
    {
      "inputs": [],
      "name": "name",
      "outputs": [
        {
          "internalType": "string",
          "name": "",
          "type": "string"
        }
      ],
      "stateMutability": "view",
      "type": "function"
    },
    {
      "inputs": [],
      "name": "owner",
      "outputs": [
        {
          "internalType": "address",
          "name": "",
          "type": "address"
        }
      ],
      "stateMutability": "view",
      "type": "function"
    },
    {
      "inputs": [
        {
          "internalType": "uint256",
          "name": "tokenId",
          "type": "uint256"
        }
      ],
      "name": "ownerOf",
      "outputs": [
        {
          "internalType": "address",
          "name": "",
          "type": "address"
        }
      ],
      "stateMutability": "view",
      "type": "function"
    },
    {
      "inputs": [
        {
          "internalType": "uint256",
          "name": "",
          "type": "uint256"
        }
      ],
      "name": "parts",
      "outputs": [
        {
          "internalType": "string",
          "name": "name",
          "type": "string"
        },
        {
          "internalType": "string",
          "name": "typePart",
          "type": "string"
        },
        {
          "internalType": "string",
          "name": "imageURI",
          "type": "string"
        },
        {
          "internalType": "string",
          "name": "rank",
          "type": "string"
        },
        {
          "internalType": "string",
          "name": "desc",
          "type": "string"
        }
      ],
      "stateMutability": "view",
      "type": "function"
    },
    {
      "inputs": [],
      "name": "renounceOwnership",
      "outputs": [],
      "stateMutability": "nonpayable",
      "type": "function"
    },
    {
      "inputs": [
        {
          "internalType": "address",
          "name": "from",
          "type": "address"
        },
        {
          "internalType": "address",
          "name": "to",
          "type": "address"
        },
        {
          "internalType": "uint256",
          "name": "tokenId",
          "type": "uint256"
        }
      ],
      "name": "safeTransferFrom",
      "outputs": [],
      "stateMutability": "nonpayable",
      "type": "function"
    },
    {
      "inputs": [
        {
          "internalType": "address",
          "name": "from",
          "type": "address"
        },
        {
          "internalType": "address",
          "name": "to",
          "type": "address"
        },
        {
          "internalType": "uint256",
          "name": "tokenId",
          "type": "uint256"
        },
        {
          "internalType": "bytes",
          "name": "data",
          "type": "bytes"
        }
      ],
      "name": "safeTransferFrom",
      "outputs": [],
      "stateMutability": "nonpayable",
      "type": "function"
    },
    {
      "inputs": [
        {
          "internalType": "address",
          "name": "operator",
          "type": "address"
        },
        {
          "internalType": "bool",
          "name": "approved",
          "type": "bool"
        }
      ],
      "name": "setApprovalForAll",
      "outputs": [],
      "stateMutability": "nonpayable",
      "type": "function"
    },
    {
      "inputs": [
        {
          "internalType": "bytes4",
          "name": "interfaceId",
          "type": "bytes4"
        }
      ],
      "name": "supportsInterface",
      "outputs": [
        {
          "internalType": "bool",
          "name": "",
          "type": "bool"
        }
      ],
      "stateMutability": "view",
      "type": "function"
    },
    {
      "inputs": [],
      "name": "symbol",
      "outputs": [
        {
          "internalType": "string",
          "name": "",
          "type": "string"
        }
      ],
      "stateMutability": "view",
      "type": "function"
    },
    {
      "inputs": [
        {
          "internalType": "uint256",
          "name": "tokenId",
          "type": "uint256"
        }
      ],
      "name": "tokenURI",
      "outputs": [
        {
          "internalType": "string",
          "name": "",
          "type": "string"
        }
      ],
      "stateMutability": "view",
      "type": "function"
    },
    {
      "inputs": [
        {
          "internalType": "address",
          "name": "from",
          "type": "address"
        },
        {
          "internalType": "address",
          "name": "to",
          "type": "address"
        },
        {
          "internalType": "uint256",
          "name": "tokenId",
          "type": "uint256"
        }
      ],
      "name": "transferFrom",
      "outputs": [],
      "stateMutability": "nonpayable",
      "type": "function"
    },
    {
      "inputs": [
        {
          "internalType": "address",
          "name": "newOwner",
          "type": "address"
        }
      ],
      "name": "transferOwnership",
      "outputs": [],
      "stateMutability": "nonpayable",
      "type": "function"
    },
    {
      "inputs": [
        {
          "internalType": "string",
          "name": "make",
          "type": "string"
        },
        {
          "internalType": "string",
          "name": "model",
          "type": "string"
        },
        {
          "internalType": "uint256",
          "name": "year",
          "type": "uint256"
        },
        {
          "internalType": "string",
          "name": "imageURI",
          "type": "string"
        },
        {
          "internalType": "string",
          "name": "description",
          "type": "string"
        },
        {
          "internalType": "string",
          "name": "tokenURI",
          "type": "string"
        }
      ],
      "name": "createCarNFT",
      "outputs": [
        {
          "internalType": "uint256",
          "name": "",
          "type": "uint256"
        }
      ],
      "stateMutability": "nonpayable",
      "type": "function"
    },
    {
      "inputs": [
        {
          "internalType": "string",
          "name": "name",
          "type": "string"
        },
        {
          "internalType": "string",
          "name": "typePart",
          "type": "string"
        },
        {
          "internalType": "string",
          "name": "imageURI",
          "type": "string"
        },
        {
          "internalType": "string",
          "name": "rank",
          "type": "string"
        },
        {
          "internalType": "string",
          "name": "description",
          "type": "string"
        },
        {
          "internalType": "string",
          "name": "tokenURI",
          "type": "string"
        }
      ],
      "name": "createPartNFT",
      "outputs": [
        {
          "internalType": "uint256",
          "name": "",
          "type": "uint256"
        }
      ],
      "stateMutability": "nonpayable",
      "type": "function"
    },
    {
      "inputs": [
        {
          "internalType": "uint256",
          "name": "carTokenId",
          "type": "uint256"
        },
        {
          "internalType": "uint256",
          "name": "partTokenId",
          "type": "uint256"
        }
      ],
      "name": "fuseCarPart",
      "outputs": [
        {
          "internalType": "uint256",
          "name": "",
          "type": "uint256"
        }
      ],
      "stateMutability": "nonpayable",
      "type": "function"
    }
  ],
  "bytecode": "0x608060405234801562000010575f80fd5b506040518060400160405280600681526020017f4361724e465400000000000000000000000000000000000000000000000000008152506040518060400160405280600381526020017f4341520000000000000000000000000000000000000000000000000000000000815250815f90816200008d9190620003f6565b5080600190816200009f9190620003f6565b505050620000c2620000b6620000c860201b60201c565b620000cf60201b60201c565b620004da565b5f33905090565b5f60075f9054906101000a900473ffffffffffffffffffffffffffffffffffffffff1690508160075f6101000a81548173ffffffffffffffffffffffffffffffffffffffff021916908373ffffffffffffffffffffffffffffffffffffffff1602179055508173ffffffffffffffffffffffffffffffffffffffff168173ffffffffffffffffffffffffffffffffffffffff167f8be0079c531659141344cd1fd0a4f28419497f9722a3daafe3b4186f6b6457e060405160405180910390a35050565b5f81519050919050565b7f4e487b71000000000000000000000000000000000000000000000000000000005f52604160045260245ffd5b7f4e487b71000000000000000000000000000000000000000000000000000000005f52602260045260245ffd5b5f60028204905060018216806200020e57607f821691505b602082108103620002245762000223620001c9565b5b50919050565b5f819050815f5260205f209050919050565b5f6020601f8301049050919050565b5f82821b905092915050565b5f60088302620002887fffffffffffffffffffffffffffffffffffffffffffffffffffffffffffffffff826200024b565b6200029486836200024b565b95508019841693508086168417925050509392505050565b5f819050919050565b5f819050919050565b5f620002de620002d8620002d284620002ac565b620002b5565b620002ac565b9050919050565b5f819050919050565b620002f983620002be565b620003116200030882620002e5565b84845462000257565b825550505050565b5f90565b6200032762000319565b62000334818484620002ee565b505050565b5b818110156200035b576200034f5f826200031d565b6001810190506200033a565b5050565b601f821115620003aa5762000374816200022a565b6200037f846200023c565b810160208510156200038f578190505b620003a76200039e856200023c565b83018262000339565b50505b505050565b5f82821c905092915050565b5f620003cc5f1984600802620003af565b1980831691505092915050565b5f620003e68383620003bb565b9150826002028217905092915050565b620004018262000192565b67ffffffffffffffff8111156200041d576200041c6200019c565b5b620004298254620001f6565b620004368282856200035f565b5f60209050601f8311600181146200046c575f841562000457578287015190505b620004638582620003d9565b865550620004d2565b601f1984166200047c866200022a565b5f5b82811015620004a5578489015182556001820191506020850194506020810190506200047e565b86831015620004c55784890151620004c1601f891682620003bb565b8355505b6001600288020188555050505b505050505050565b61425c80620004e85f395ff3fe608060405234801561000f575f80fd5b5060043610610135575f3560e01c806370a08231116100b6578063b88d4fde1161007a578063b88d4fde1461035d578063c87b56dd14610379578063c9eb4662146103a9578063e985e9c5146103dd578063f2fde38b1461040d578063f7746e361461042957610135565b806370a08231146102cb578063715018a6146102fb5780638da5cb5b1461030557806395d89b4114610323578063a22cb4651461034157610135565b80632507b783116100fd5780632507b783146101ef57806333d1ea6b1461021f57806342842e0e1461024f5780636352211e1461026b5780636a9f1eb31461029b57610135565b806301ffc9a71461013957806306fdde0314610169578063081812fc14610187578063095ea7b3146101b757806323b872dd146101d3575b5f80fd5b610153600480360381019061014e9190612a95565b61045d565b6040516101609190612ada565b60405180910390f35b6101716104bd565b60405161017e9190612b7d565b60405180910390f35b6101a1600480360381019061019c9190612bd0565b61054c565b6040516101ae9190612c3a565b60405180910390f35b6101d160048036038101906101cc9190612c7d565b61058e565b005b6101ed60048036038101906101e89190612cbb565b6106a4565b005b61020960048036038101906102049190612e37565b610704565b6040516102169190612f5b565b60405180910390f35b61023960048036038101906102349190612f74565b610816565b6040516102469190612f5b565b60405180910390f35b61026960048036038101906102649190612cbb565b610cf3565b005b61028560048036038101906102809190612bd0565b610d12565b6040516102929190612c3a565b60405180910390f35b6102b560048036038101906102b09190612fb2565b610d96565b6040516102c29190612f5b565b60405180910390f35b6102e560048036038101906102e091906130e3565b610eb4565b6040516102f29190612f5b565b60405180910390f35b610303610f68565b005b61030d610f7b565b60405161031a9190612c3a565b60405180910390f35b61032b610fa3565b6040516103389190612b7d565b60405180910390f35b61035b60048036038101906103569190613138565b611033565b005b61037760048036038101906103729190613214565b611049565b005b610393600480360381019061038e9190612bd0565b6110ab565b6040516103a09190612b7d565b60405180910390f35b6103c360048036038101906103be9190612bd0565b6111b5565b6040516103d4959493929190613294565b60405180910390f35b6103f760048036038101906103f29190613308565b611485565b6040516104049190612ada565b60405180910390f35b610427600480360381019061042291906130e3565b611513565b005b610443600480360381019061043e9190612bd0565b611595565b604051610454959493929190613346565b60405180910390f35b5f634906490660e01b7bffffffffffffffffffffffffffffffffffffffffffffffffffffffff1916827bffffffffffffffffffffffffffffffffffffffffffffffffffffffff191614806104b657506104b5826117df565b5b9050919050565b60605f80546104cb906133e0565b80601f01602080910402602001604051908101604052809291908181526020018280546104f7906133e0565b80156105425780601f1061051957610100808354040283529160200191610542565b820191905f5260205f20905b81548152906001019060200180831161052557829003601f168201915b5050505050905090565b5f610556826118c0565b60045f8381526020019081526020015f205f9054906101000a900473ffffffffffffffffffffffffffffffffffffffff169050919050565b5f61059882610d12565b90508073ffffffffffffffffffffffffffffffffffffffff168373ffffffffffffffffffffffffffffffffffffffff1603610608576040517f08c379a00000000000000000000000000000000000000000000000000000000081526004016105ff90613480565b60405180910390fd5b8073ffffffffffffffffffffffffffffffffffffffff1661062761190b565b73ffffffffffffffffffffffffffffffffffffffff16148061065657506106558161065061190b565b611485565b5b610695576040517f08c379a000000000000000000000000000000000000000000000000000000000815260040161068c9061350e565b60405180910390fd5b61069f8383611912565b505050565b6106b56106af61190b565b826119c8565b6106f4576040517f08c379a00000000000000000000000000000000000000000000000000000000081526004016106eb9061359c565b60405180910390fd5b6106ff838383611a5c565b505050565b5f61070f6008611d48565b5f61071a6008611d5c565b90506107263382611d68565b6107308184611f7b565b6040518060a001604052808981526020018881526020018781526020018681526020018581525060095f8381526020019081526020015f205f820151815f01908161077b9190613757565b5060208201518160010190816107919190613757565b506040820151816002015560608201518160030190816107b19190613757565b5060808201518160040190816107c79190613757565b509050507f6fe42f42d7e31cd220a37c97111fbfceda91a95ed77ea15b7e4d8ffd37a87927818989896040516108009493929190613826565b60405180910390a1809150509695505050505050565b5f3373ffffffffffffffffffffffffffffffffffffffff1661083784610d12565b73ffffffffffffffffffffffffffffffffffffffff161461088d576040517f08c379a0000000000000000000000000000000000000000000000000000000008152600401610884906138e7565b60405180910390fd5b3373ffffffffffffffffffffffffffffffffffffffff166108ad83610d12565b73ffffffffffffffffffffffffffffffffffffffff1614610903576040517f08c379a00000000000000000000000000000000000000000000000000000000081526004016108fa90613975565b60405180910390fd5b61090d6008611d48565b5f6109186008611d5c565b90505f60095f8681526020019081526020015f206040518060a00160405290815f82018054610946906133e0565b80601f0160208091040260200160405190810160405280929190818152602001828054610972906133e0565b80156109bd5780601f10610994576101008083540402835291602001916109bd565b820191905f5260205f20905b8154815290600101906020018083116109a057829003601f168201915b505050505081526020016001820180546109d6906133e0565b80601f0160208091040260200160405190810160405280929190818152602001828054610a02906133e0565b8015610a4d5780601f10610a2457610100808354040283529160200191610a4d565b820191905f5260205f20905b815481529060010190602001808311610a3057829003601f168201915b5050505050815260200160028201548152602001600382018054610a70906133e0565b80601f0160208091040260200160405190810160405280929190818152602001828054610a9c906133e0565b8015610ae75780601f10610abe57610100808354040283529160200191610ae7565b820191905f5260205f20905b815481529060010190602001808311610aca57829003601f168201915b50505050508152602001600482018054610b00906133e0565b80601f0160208091040260200160405190810160405280929190818152602001828054610b2c906133e0565b8015610b775780601f10610b4e57610100808354040283529160200191610b77565b820191905f5260205f20905b815481529060010190602001808311610b5a57829003601f168201915b50505050508152505090505f815f01518260200151604051602001610b9d929190613a61565b60405160208183030381529060405290505f826060015190505f8360800151610bc58861201d565b604051602001610bd6929190613ae4565b6040516020818303038152906040529050610bf13386611d68565b610bfb8584611f7b565b6040518060a00160405280855f0151815260200185602001518152602001856040015181526020018381526020018281525060095f8781526020019081526020015f205f820151815f019081610c519190613757565b506020820151816001019081610c679190613757565b50604082015181600201556060820151816003019081610c879190613757565b506080820151816004019081610c9d9190613757565b50905050610caa876120e7565b7fcdc705de6a8173f225a14aefb8e4ba2fcb3f7f006a431329eb4967e1db5cbbc1858989604051610cdd93929190613b12565b60405180910390a1849550505050505092915050565b610d0d83838360405180602001604052805f815250611049565b505050565b5f80610d1d83612134565b90505f73ffffffffffffffffffffffffffffffffffffffff168173ffffffffffffffffffffffffffffffffffffffff1603610d8d576040517f08c379a0000000000000000000000000000000000000000000000000000000008152600401610d8490613b91565b60405180910390fd5b80915050919050565b5f610da16008611d48565b5f610dac6008611d5c565b9050610db83382611d68565b610dc28184611f7b565b6040518060a0016040528089815260200188815260200187815260200186815260200185815250600a5f8381526020019081526020015f205f820151815f019081610e0d9190613757565b506020820151816001019081610e239190613757565b506040820151816002019081610e399190613757565b506060820151816003019081610e4f9190613757565b506080820151816004019081610e659190613757565b509050507f1bb791fc3f2bc225fbf4d29452060230db7a98b287bad662bdf57a0925d53b4e81898988604051610e9e9493929190613baf565b60405180910390a1809150509695505050505050565b5f8073ffffffffffffffffffffffffffffffffffffffff168273ffffffffffffffffffffffffffffffffffffffff1603610f23576040517f08c379a0000000000000000000000000000000000000000000000000000000008152600401610f1a90613c77565b60405180910390fd5b60035f8373ffffffffffffffffffffffffffffffffffffffff1673ffffffffffffffffffffffffffffffffffffffff1681526020019081526020015f20549050919050565b610f7061216d565b610f795f6121eb565b565b5f60075f9054906101000a900473ffffffffffffffffffffffffffffffffffffffff16905090565b606060018054610fb2906133e0565b80601f0160208091040260200160405190810160405280929190818152602001828054610fde906133e0565b80156110295780601f1061100057610100808354040283529160200191611029565b820191905f5260205f20905b81548152906001019060200180831161100c57829003601f168201915b5050505050905090565b61104561103e61190b565b83836122ae565b5050565b61105a61105461190b565b836119c8565b611099576040517f08c379a00000000000000000000000000000000000000000000000000000000081526004016110909061359c565b60405180910390fd5b6110a584848484612415565b50505050565b60606110b6826118c0565b5f60065f8481526020019081526020015f2080546110d3906133e0565b80601f01602080910402602001604051908101604052809291908181526020018280546110ff906133e0565b801561114a5780601f106111215761010080835404028352916020019161114a565b820191905f5260205f20905b81548152906001019060200180831161112d57829003601f168201915b505050505090505f61115a612471565b90505f81510361116e5781925050506111b0565b5f825111156111a257808260405160200161118a929190613c95565b604051602081830303815290604052925050506111b0565b6111ab84612487565b925050505b919050565b600a602052805f5260405f205f91509050805f0180546111d4906133e0565b80601f0160208091040260200160405190810160405280929190818152602001828054611200906133e0565b801561124b5780601f106112225761010080835404028352916020019161124b565b820191905f5260205f20905b81548152906001019060200180831161122e57829003601f168201915b505050505090806001018054611260906133e0565b80601f016020809104026020016040519081016040528092919081815260200182805461128c906133e0565b80156112d75780601f106112ae576101008083540402835291602001916112d7565b820191905f5260205f20905b8154815290600101906020018083116112ba57829003601f168201915b5050505050908060020180546112ec906133e0565b80601f0160208091040260200160405190810160405280929190818152602001828054611318906133e0565b80156113635780601f1061133a57610100808354040283529160200191611363565b820191905f5260205f20905b81548152906001019060200180831161134657829003601f168201915b505050505090806003018054611378906133e0565b80601f01602080910402602001604051908101604052809291908181526020018280546113a4906133e0565b80156113ef5780601f106113c6576101008083540402835291602001916113ef565b820191905f5260205f20905b8154815290600101906020018083116113d257829003601f168201915b505050505090806004018054611404906133e0565b80601f0160208091040260200160405190810160405280929190818152602001828054611430906133e0565b801561147b5780601f106114525761010080835404028352916020019161147b565b820191905f5260205f20905b81548152906001019060200180831161145e57829003601f168201915b5050505050905085565b5f60055f8473ffffffffffffffffffffffffffffffffffffffff1673ffffffffffffffffffffffffffffffffffffffff1681526020019081526020015f205f8373ffffffffffffffffffffffffffffffffffffffff1673ffffffffffffffffffffffffffffffffffffffff1681526020019081526020015f205f9054906101000a900460ff16905092915050565b61151b61216d565b5f73ffffffffffffffffffffffffffffffffffffffff168173ffffffffffffffffffffffffffffffffffffffff1603611589576040517f08c379a000000000000000000000000000000000000000000000000000000000815260040161158090613d28565b60405180910390fd5b611592816121eb565b50565b6009602052805f5260405f205f91509050805f0180546115b4906133e0565b80601f01602080910402602001604051908101604052809291908181526020018280546115e0906133e0565b801561162b5780601f106116025761010080835404028352916020019161162b565b820191905f5260205f20905b81548152906001019060200180831161160e57829003601f168201915b505050505090806001018054611640906133e0565b80601f016020809104026020016040519081016040528092919081815260200182805461166c906133e0565b80156116b75780601f1061168e576101008083540402835291602001916116b7565b820191905f5260205f20905b81548152906001019060200180831161169a57829003601f168201915b5050505050908060020154908060030180546116d2906133e0565b80601f01602080910402602001604051908101604052809291908181526020018280546116fe906133e0565b80156117495780601f1061172057610100808354040283529160200191611749565b820191905f5260205f20905b81548152906001019060200180831161172c57829003601f168201915b50505050509080600401805461175e906133e0565b80601f016020809104026020016040519081016040528092919081815260200182805461178a906133e0565b80156117d55780601f106117ac576101008083540402835291602001916117d5565b820191905f5260205f20905b8154815290600101906020018083116117b857829003601f168201915b5050505050905085565b5f7f80ac58cd000000000000000000000000000000000000000000000000000000007bffffffffffffffffffffffffffffffffffffffffffffffffffffffff1916827bffffffffffffffffffffffffffffffffffffffffffffffffffffffff191614806118a957507f5b5e139f000000000000000000000000000000000000000000000000000000007bffffffffffffffffffffffffffffffffffffffffffffffffffffffff1916827bffffffffffffffffffffffffffffffffffffffffffffffffffffffff1916145b806118b957506118b8826124ec565b5b9050919050565b6118c981612555565b611908576040517f08c379a00000000000000000000000000000000000000000000000000000000081526004016118ff90613b91565b60405180910390fd5b50565b5f33905090565b8160045f8381526020019081526020015f205f6101000a81548173ffffffffffffffffffffffffffffffffffffffff021916908373ffffffffffffffffffffffffffffffffffffffff160217905550808273ffffffffffffffffffffffffffffffffffffffff1661198283610d12565b73ffffffffffffffffffffffffffffffffffffffff167f8c5be1e5ebec7d5bd14f71427d1e84f3dd0314c0f7b2291e5b200ac8c7c3b92560405160405180910390a45050565b5f806119d383610d12565b90508073ffffffffffffffffffffffffffffffffffffffff168473ffffffffffffffffffffffffffffffffffffffff161480611a155750611a148185611485565b5b80611a5357508373ffffffffffffffffffffffffffffffffffffffff16611a3b8461054c565b73ffffffffffffffffffffffffffffffffffffffff16145b91505092915050565b8273ffffffffffffffffffffffffffffffffffffffff16611a7c82610d12565b73ffffffffffffffffffffffffffffffffffffffff1614611ad2576040517f08c379a0000000000000000000000000000000000000000000000000000000008152600401611ac990613db6565b60405180910390fd5b5f73ffffffffffffffffffffffffffffffffffffffff168273ffffffffffffffffffffffffffffffffffffffff1603611b40576040517f08c379a0000000000000000000000000000000000000000000000000000000008152600401611b3790613e44565b60405180910390fd5b611b4d8383836001612595565b8273ffffffffffffffffffffffffffffffffffffffff16611b6d82610d12565b73ffffffffffffffffffffffffffffffffffffffff1614611bc3576040517f08c379a0000000000000000000000000000000000000000000000000000000008152600401611bba90613db6565b60405180910390fd5b60045f8281526020019081526020015f205f6101000a81549073ffffffffffffffffffffffffffffffffffffffff0219169055600160035f8573ffffffffffffffffffffffffffffffffffffffff1673ffffffffffffffffffffffffffffffffffffffff1681526020019081526020015f205f8282540392505081905550600160035f8473ffffffffffffffffffffffffffffffffffffffff1673ffffffffffffffffffffffffffffffffffffffff1681526020019081526020015f205f82825401925050819055508160025f8381526020019081526020015f205f6101000a81548173ffffffffffffffffffffffffffffffffffffffff021916908373ffffffffffffffffffffffffffffffffffffffff160217905550808273ffffffffffffffffffffffffffffffffffffffff168473ffffffffffffffffffffffffffffffffffffffff167fddf252ad1be2c89b69c2b068fc378daa952ba7f163c4a11628f55a4df523b3ef60405160405180910390a4611d43838383600161259b565b505050565b6001815f015f828254019250508190555050565b5f815f01549050919050565b5f73ffffffffffffffffffffffffffffffffffffffff168273ffffffffffffffffffffffffffffffffffffffff1603611dd6576040517f08c379a0000000000000000000000000000000000000000000000000000000008152600401611dcd90613eac565b60405180910390fd5b611ddf81612555565b15611e1f576040517f08c379a0000000000000000000000000000000000000000000000000000000008152600401611e1690613f14565b60405180910390fd5b611e2c5f83836001612595565b611e3581612555565b15611e75576040517f08c379a0000000000000000000000000000000000000000000000000000000008152600401611e6c90613f14565b60405180910390fd5b600160035f8473ffffffffffffffffffffffffffffffffffffffff1673ffffffffffffffffffffffffffffffffffffffff1681526020019081526020015f205f82825401925050819055508160025f8381526020019081526020015f205f6101000a81548173ffffffffffffffffffffffffffffffffffffffff021916908373ffffffffffffffffffffffffffffffffffffffff160217905550808273ffffffffffffffffffffffffffffffffffffffff165f73ffffffffffffffffffffffffffffffffffffffff167fddf252ad1be2c89b69c2b068fc378daa952ba7f163c4a11628f55a4df523b3ef60405160405180910390a4611f775f8383600161259b565b5050565b611f8482612555565b611fc3576040517f08c379a0000000000000000000000000000000000000000000000000000000008152600401611fba90613fa2565b60405180910390fd5b8060065f8481526020019081526020015f209081611fe19190613757565b507ff8e1a15aba9398e019f0b49df1a4fde98ee17ae345cb5f6b5e2c27f5033e8ce7826040516120119190612f5b565b60405180910390a15050565b60605f600161202b846125a1565b0190505f8167ffffffffffffffff81111561204957612048612d13565b5b6040519080825280601f01601f19166020018201604052801561207b5781602001600182028036833780820191505090505b5090505f82602001820190505b6001156120dc578080600190039150507f3031323334353637383961626364656600000000000000000000000000000000600a86061a8153600a85816120d1576120d0613fc0565b5b0494505f8503612088575b819350505050919050565b6120f0816126f2565b5f60065f8381526020019081526020015f20805461210d906133e0565b9050146121315760065f8281526020019081526020015f205f61213091906129d7565b5b50565b5f60025f8381526020019081526020015f205f9054906101000a900473ffffffffffffffffffffffffffffffffffffffff169050919050565b61217561190b565b73ffffffffffffffffffffffffffffffffffffffff16612193610f7b565b73ffffffffffffffffffffffffffffffffffffffff16146121e9576040517f08c379a00000000000000000000000000000000000000000000000000000000081526004016121e090614037565b60405180910390fd5b565b5f60075f9054906101000a900473ffffffffffffffffffffffffffffffffffffffff1690508160075f6101000a81548173ffffffffffffffffffffffffffffffffffffffff021916908373ffffffffffffffffffffffffffffffffffffffff1602179055508173ffffffffffffffffffffffffffffffffffffffff168173ffffffffffffffffffffffffffffffffffffffff167f8be0079c531659141344cd1fd0a4f28419497f9722a3daafe3b4186f6b6457e060405160405180910390a35050565b8173ffffffffffffffffffffffffffffffffffffffff168373ffffffffffffffffffffffffffffffffffffffff160361231c576040517f08c379a00000000000000000000000000000000000000000000000000000000081526004016123139061409f565b60405180910390fd5b8060055f8573ffffffffffffffffffffffffffffffffffffffff1673ffffffffffffffffffffffffffffffffffffffff1681526020019081526020015f205f8473ffffffffffffffffffffffffffffffffffffffff1673ffffffffffffffffffffffffffffffffffffffff1681526020019081526020015f205f6101000a81548160ff0219169083151502179055508173ffffffffffffffffffffffffffffffffffffffff168373ffffffffffffffffffffffffffffffffffffffff167f17307eab39ab6107e8899845ad3d59bd9653f200f220920489ca2b5937696c31836040516124089190612ada565b60405180910390a3505050565b612420848484611a5c565b61242c84848484612833565b61246b576040517f08c379a00000000000000000000000000000000000000000000000000000000081526004016124629061412d565b60405180910390fd5b50505050565b606060405180602001604052805f815250905090565b6060612492826118c0565b5f61249b612471565b90505f8151116124b95760405180602001604052805f8152506124e4565b806124c38461201d565b6040516020016124d4929190613c95565b6040516020818303038152906040525b915050919050565b5f7f01ffc9a7000000000000000000000000000000000000000000000000000000007bffffffffffffffffffffffffffffffffffffffffffffffffffffffff1916827bffffffffffffffffffffffffffffffffffffffffffffffffffffffff1916149050919050565b5f8073ffffffffffffffffffffffffffffffffffffffff1661257683612134565b73ffffffffffffffffffffffffffffffffffffffff1614159050919050565b50505050565b50505050565b5f805f90507a184f03e93ff9f4daa797ed6e38ed64bf6a1f01000000000000000083106125fd577a184f03e93ff9f4daa797ed6e38ed64bf6a1f01000000000000000083816125f3576125f2613fc0565b5b0492506040810190505b6d04ee2d6d415b85acef8100000000831061263a576d04ee2d6d415b85acef810000000083816126305761262f613fc0565b5b0492506020810190505b662386f26fc10000831061266957662386f26fc10000838161265f5761265e613fc0565b5b0492506010810190505b6305f5e1008310612692576305f5e100838161268857612687613fc0565b5b0492506008810190505b61271083106126b75761271083816126ad576126ac613fc0565b5b0492506004810190505b606483106126da57606483816126d0576126cf613fc0565b5b0492506002810190505b600a83106126e9576001810190505b80915050919050565b5f6126fc82610d12565b905061270b815f846001612595565b61271482610d12565b905060045f8381526020019081526020015f205f6101000a81549073ffffffffffffffffffffffffffffffffffffffff0219169055600160035f8373ffffffffffffffffffffffffffffffffffffffff1673ffffffffffffffffffffffffffffffffffffffff1681526020019081526020015f205f828254039250508190555060025f8381526020019081526020015f205f6101000a81549073ffffffffffffffffffffffffffffffffffffffff0219169055815f73ffffffffffffffffffffffffffffffffffffffff168273ffffffffffffffffffffffffffffffffffffffff167fddf252ad1be2c89b69c2b068fc378daa952ba7f163c4a11628f55a4df523b3ef60405160405180910390a461282f815f84600161259b565b5050565b5f6128538473ffffffffffffffffffffffffffffffffffffffff166129b5565b156129a8578373ffffffffffffffffffffffffffffffffffffffff1663150b7a0261287c61190b565b8786866040518563ffffffff1660e01b815260040161289e949392919061419d565b6020604051808303815f875af19250505080156128d957506040513d601f19601f820116820180604052508101906128d691906141fb565b60015b612958573d805f8114612907576040519150601f19603f3d011682016040523d82523d5f602084013e61290c565b606091505b505f815103612950576040517f08c379a00000000000000000000000000000000000000000000000000000000081526004016129479061412d565b60405180910390fd5b805181602001fd5b63150b7a0260e01b7bffffffffffffffffffffffffffffffffffffffffffffffffffffffff1916817bffffffffffffffffffffffffffffffffffffffffffffffffffffffff1916149150506129ad565b600190505b949350505050565b5f808273ffffffffffffffffffffffffffffffffffffffff163b119050919050565b5080546129e3906133e0565b5f825580601f106129f45750612a11565b601f0160209004905f5260205f2090810190612a109190612a14565b5b50565b5b80821115612a2b575f815f905550600101612a15565b5090565b5f604051905090565b5f80fd5b5f80fd5b5f7fffffffff0000000000000000000000000000000000000000000000000000000082169050919050565b612a7481612a40565b8114612a7e575f80fd5b50565b5f81359050612a8f81612a6b565b92915050565b5f60208284031215612aaa57612aa9612a38565b5b5f612ab784828501612a81565b91505092915050565b5f8115159050919050565b612ad481612ac0565b82525050565b5f602082019050612aed5f830184612acb565b92915050565b5f81519050919050565b5f82825260208201905092915050565b5f5b83811015612b2a578082015181840152602081019050612b0f565b5f8484015250505050565b5f601f19601f8301169050919050565b5f612b4f82612af3565b612b598185612afd565b9350612b69818560208601612b0d565b612b7281612b35565b840191505092915050565b5f6020820190508181035f830152612b958184612b45565b905092915050565b5f819050919050565b612baf81612b9d565b8114612bb9575f80fd5b50565b5f81359050612bca81612ba6565b92915050565b5f60208284031215612be557612be4612a38565b5b5f612bf284828501612bbc565b91505092915050565b5f73ffffffffffffffffffffffffffffffffffffffff82169050919050565b5f612c2482612bfb565b9050919050565b612c3481612c1a565b82525050565b5f602082019050612c4d5f830184612c2b565b92915050565b612c5c81612c1a565b8114612c66575f80fd5b50565b5f81359050612c7781612c53565b92915050565b5f8060408385031215612c9357612c92612a38565b5b5f612ca085828601612c69565b9250506020612cb185828601612bbc565b9150509250929050565b5f805f60608486031215612cd257612cd1612a38565b5b5f612cdf86828701612c69565b9350506020612cf086828701612c69565b9250506040612d0186828701612bbc565b9150509250925092565b5f80fd5b5f80fd5b7f4e487b71000000000000000000000000000000000000000000000000000000005f52604160045260245ffd5b612d4982612b35565b810181811067ffffffffffffffff82111715612d6857612d67612d13565b5b80604052505050565b5f612d7a612a2f565b9050612d868282612d40565b919050565b5f67ffffffffffffffff821115612da557612da4612d13565b5b612dae82612b35565b9050602081019050919050565b828183375f83830152505050565b5f612ddb612dd684612d8b565b612d71565b905082815260208101848484011115612df757612df6612d0f565b5b612e02848285612dbb565b509392505050565b5f82601f830112612e1e57612e1d612d0b565b5b8135612e2e848260208601612dc9565b91505092915050565b5f805f805f8060c08789031215612e5157612e50612a38565b5b5f87013567ffffffffffffffff811115612e6e57612e6d612a3c565b5b612e7a89828a01612e0a565b965050602087013567ffffffffffffffff811115612e9b57612e9a612a3c565b5b612ea789828a01612e0a565b9550506040612eb889828a01612bbc565b945050606087013567ffffffffffffffff811115612ed957612ed8612a3c565b5b612ee589828a01612e0a565b935050608087013567ffffffffffffffff811115612f0657612f05612a3c565b5b612f1289828a01612e0a565b92505060a087013567ffffffffffffffff811115612f3357612f32612a3c565b5b612f3f89828a01612e0a565b9150509295509295509295565b612f5581612b9d565b82525050565b5f602082019050612f6e5f830184612f4c565b92915050565b5f8060408385031215612f8a57612f89612a38565b5b5f612f9785828601612bbc565b9250506020612fa885828601612bbc565b9150509250929050565b5f805f805f8060c08789031215612fcc57612fcb612a38565b5b5f87013567ffffffffffffffff811115612fe957612fe8612a3c565b5b612ff589828a01612e0a565b965050602087013567ffffffffffffffff81111561301657613015612a3c565b5b61302289828a01612e0a565b955050604087013567ffffffffffffffff81111561304357613042612a3c565b5b61304f89828a01612e0a565b945050606087013567ffffffffffffffff8111156130705761306f612a3c565b5b61307c89828a01612e0a565b935050608087013567ffffffffffffffff81111561309d5761309c612a3c565b5b6130a989828a01612e0a565b92505060a087013567ffffffffffffffff8111156130ca576130c9612a3c565b5b6130d689828a01612e0a565b9150509295509295509295565b5f602082840312156130f8576130f7612a38565b5b5f61310584828501612c69565b91505092915050565b61311781612ac0565b8114613121575f80fd5b50565b5f813590506131328161310e565b92915050565b5f806040838503121561314e5761314d612a38565b5b5f61315b85828601612c69565b925050602061316c85828601613124565b9150509250929050565b5f67ffffffffffffffff8211156131905761318f612d13565b5b61319982612b35565b9050602081019050919050565b5f6131b86131b384613176565b612d71565b9050828152602081018484840111156131d4576131d3612d0f565b5b6131df848285612dbb565b509392505050565b5f82601f8301126131fb576131fa612d0b565b5b813561320b8482602086016131a6565b91505092915050565b5f805f806080858703121561322c5761322b612a38565b5b5f61323987828801612c69565b945050602061324a87828801612c69565b935050604061325b87828801612bbc565b925050606085013567ffffffffffffffff81111561327c5761327b612a3c565b5b613288878288016131e7565b91505092959194509250565b5f60a0820190508181035f8301526132ac8188612b45565b905081810360208301526132c08187612b45565b905081810360408301526132d48186612b45565b905081810360608301526132e88185612b45565b905081810360808301526132fc8184612b45565b90509695505050505050565b5f806040838503121561331e5761331d612a38565b5b5f61332b85828601612c69565b925050602061333c85828601612c69565b9150509250929050565b5f60a0820190508181035f83015261335e8188612b45565b905081810360208301526133728187612b45565b90506133816040830186612f4c565b81810360608301526133938185612b45565b905081810360808301526133a78184612b45565b90509695505050505050565b7f4e487b71000000000000000000000000000000000000000000000000000000005f52602260045260245ffd5b5f60028204905060018216806133f757607f821691505b60208210810361340a576134096133b3565b5b50919050565b7f4552433732313a20617070726f76616c20746f2063757272656e74206f776e655f8201527f7200000000000000000000000000000000000000000000000000000000000000602082015250565b5f61346a602183612afd565b915061347582613410565b604082019050919050565b5f6020820190508181035f8301526134978161345e565b9050919050565b7f4552433732313a20617070726f76652063616c6c6572206973206e6f7420746f5f8201527f6b656e206f776e6572206f7220617070726f76656420666f7220616c6c000000602082015250565b5f6134f8603d83612afd565b91506135038261349e565b604082019050919050565b5f6020820190508181035f830152613525816134ec565b9050919050565b7f4552433732313a2063616c6c6572206973206e6f7420746f6b656e206f776e655f8201527f72206f7220617070726f76656400000000000000000000000000000000000000602082015250565b5f613586602d83612afd565b91506135918261352c565b604082019050919050565b5f6020820190508181035f8301526135b38161357a565b9050919050565b5f819050815f5260205f209050919050565b5f6020601f8301049050919050565b5f82821b905092915050565b5f600883026136167fffffffffffffffffffffffffffffffffffffffffffffffffffffffffffffffff826135db565b61362086836135db565b95508019841693508086168417925050509392505050565b5f819050919050565b5f61365b61365661365184612b9d565b613638565b612b9d565b9050919050565b5f819050919050565b61367483613641565b61368861368082613662565b8484546135e7565b825550505050565b5f90565b61369c613690565b6136a781848461366b565b505050565b5b818110156136ca576136bf5f82613694565b6001810190506136ad565b5050565b601f82111561370f576136e0816135ba565b6136e9846135cc565b810160208510156136f8578190505b61370c613704856135cc565b8301826136ac565b50505b505050565b5f82821c905092915050565b5f61372f5f1984600802613714565b1980831691505092915050565b5f6137478383613720565b9150826002028217905092915050565b61376082612af3565b67ffffffffffffffff81111561377957613778612d13565b5b61378382546133e0565b61378e8282856136ce565b5f60209050601f8311600181146137bf575f84156137ad578287015190505b6137b7858261373c565b86555061381e565b601f1984166137cd866135ba565b5f5b828110156137f4578489015182556001820191506020850194506020810190506137cf565b86831015613811578489015161380d601f891682613720565b8355505b6001600288020188555050505b505050505050565b5f6080820190506138395f830187612f4c565b818103602083015261384b8186612b45565b9050818103604083015261385f8185612b45565b905061386e6060830184612f4c565b95945050505050565b7f596f75206d757374206f776e2074686520636172204e465420746f20667573655f8201527f2077697468206120706172742e00000000000000000000000000000000000000602082015250565b5f6138d1602d83612afd565b91506138dc82613877565b604082019050919050565b5f6020820190508181035f8301526138fe816138c5565b9050919050565b7f596f75206d757374206f776e207468652070617274204e465420746f206675735f8201527f652e000000000000000000000000000000000000000000000000000000000000602082015250565b5f61395f602283612afd565b915061396a82613905565b604082019050919050565b5f6020820190508181035f83015261398c81613953565b9050919050565b5f81905092915050565b5f6139a782612af3565b6139b18185613993565b93506139c1818560208601612b0d565b80840191505092915050565b7f5f000000000000000000000000000000000000000000000000000000000000005f82015250565b5f613a01600183613993565b9150613a0c826139cd565b600182019050919050565b7f5f667573656400000000000000000000000000000000000000000000000000005f82015250565b5f613a4b600683613993565b9150613a5682613a17565b600682019050919050565b5f613a6c828561399d565b9150613a77826139f5565b9150613a83828461399d565b9150613a8e82613a3f565b91508190509392505050565b7f74657374000000000000000000000000000000000000000000000000000000005f82015250565b5f613ace600483613993565b9150613ad982613a9a565b600482019050919050565b5f613aef828561399d565b9150613afa82613ac2565b9150613b06828461399d565b91508190509392505050565b5f606082019050613b255f830186612f4c565b613b326020830185612f4c565b613b3f6040830184612f4c565b949350505050565b7f4552433732313a20696e76616c696420746f6b656e20494400000000000000005f82015250565b5f613b7b601883612afd565b9150613b8682613b47565b602082019050919050565b5f6020820190508181035f830152613ba881613b6f565b9050919050565b5f608082019050613bc25f830187612f4c565b8181036020830152613bd48186612b45565b90508181036040830152613be88185612b45565b90508181036060830152613bfc8184612b45565b905095945050505050565b7f4552433732313a2061646472657373207a65726f206973206e6f7420612076615f8201527f6c6964206f776e65720000000000000000000000000000000000000000000000602082015250565b5f613c61602983612afd565b9150613c6c82613c07565b604082019050919050565b5f6020820190508181035f830152613c8e81613c55565b9050919050565b5f613ca0828561399d565b9150613cac828461399d565b91508190509392505050565b7f4f776e61626c653a206e6577206f776e657220697320746865207a65726f20615f8201527f6464726573730000000000000000000000000000000000000000000000000000602082015250565b5f613d12602683612afd565b9150613d1d82613cb8565b604082019050919050565b5f6020820190508181035f830152613d3f81613d06565b9050919050565b7f4552433732313a207472616e736665722066726f6d20696e636f7272656374205f8201527f6f776e6572000000000000000000000000000000000000000000000000000000602082015250565b5f613da0602583612afd565b9150613dab82613d46565b604082019050919050565b5f6020820190508181035f830152613dcd81613d94565b9050919050565b7f4552433732313a207472616e7366657220746f20746865207a65726f206164645f8201527f7265737300000000000000000000000000000000000000000000000000000000602082015250565b5f613e2e602483612afd565b9150613e3982613dd4565b604082019050919050565b5f6020820190508181035f830152613e5b81613e22565b9050919050565b7f4552433732313a206d696e7420746f20746865207a65726f20616464726573735f82015250565b5f613e96602083612afd565b9150613ea182613e62565b602082019050919050565b5f6020820190508181035f830152613ec381613e8a565b9050919050565b7f4552433732313a20746f6b656e20616c7265616479206d696e746564000000005f82015250565b5f613efe601c83612afd565b9150613f0982613eca565b602082019050919050565b5f6020820190508181035f830152613f2b81613ef2565b9050919050565b7f45524337323155524953746f726167653a2055524920736574206f66206e6f6e5f8201527f6578697374656e7420746f6b656e000000000000000000000000000000000000602082015250565b5f613f8c602e83612afd565b9150613f9782613f32565b604082019050919050565b5f6020820190508181035f830152613fb981613f80565b9050919050565b7f4e487b71000000000000000000000000000000000000000000000000000000005f52601260045260245ffd5b7f4f776e61626c653a2063616c6c6572206973206e6f7420746865206f776e65725f82015250565b5f614021602083612afd565b915061402c82613fed565b602082019050919050565b5f6020820190508181035f83015261404e81614015565b9050919050565b7f4552433732313a20617070726f766520746f2063616c6c6572000000000000005f82015250565b5f614089601983612afd565b915061409482614055565b602082019050919050565b5f6020820190508181035f8301526140b68161407d565b9050919050565b7f4552433732313a207472616e7366657220746f206e6f6e2045524337323152655f8201527f63656976657220696d706c656d656e7465720000000000000000000000000000602082015250565b5f614117603283612afd565b9150614122826140bd565b604082019050919050565b5f6020820190508181035f8301526141448161410b565b9050919050565b5f81519050919050565b5f82825260208201905092915050565b5f61416f8261414b565b6141798185614155565b9350614189818560208601612b0d565b61419281612b35565b840191505092915050565b5f6080820190506141b05f830187612c2b565b6141bd6020830186612c2b565b6141ca6040830185612f4c565b81810360608301526141dc8184614165565b905095945050505050565b5f815190506141f581612a6b565b92915050565b5f602082840312156142105761420f612a38565b5b5f61421d848285016141e7565b9150509291505056fea264697066735822122031190283778152fc41c9ca9d07beef9fc5b3caa5ecce62d33cffb476076e192464736f6c63430008150033",
  "immutableReferences": {},
  "source": "// SPDX-License-Identifier: MIT\r\npragma solidity ^0.8.0;\r\n\r\nimport \"@openzeppelin/contracts/token/ERC721/ERC721.sol\";\r\nimport \"@openzeppelin/contracts/token/ERC721/extensions/ERC721URIStorage.sol\";\r\nimport \"@openzeppelin/contracts/access/Ownable.sol\";\r\nimport \"@openzeppelin/contracts/utils/Counters.sol\";\r\n\r\ncontract CarNFT is ERC721URIStorage, Ownable {\r\n    using Counters for Counters.Counter;\r\n    Counters.Counter private _tokenIds;\r\n\r\n    struct Car {\r\n        string make;\r\n        string model;\r\n        uint256 year;\r\n        string imageURI; \r\n        string desc; \r\n    }\r\n\r\n\r\n    // Piece de voiture \r\n    struct Part {\r\n        string name;\r\n        string typePart;\r\n        string imageURI;\r\n        string rank; \r\n        string desc; \r\n    }\r\n\r\n    mapping(uint256 => Car) public cars;\r\n    mapping(uint256 => Part) public parts;\r\n\r\n    event CarNFTCreated(uint256 tokenId, string make, string model, uint256 year);\r\n    event PartNFTCreated(uint256 tokenId, string name, string typePart, string rank);  \r\n    event NFTFused(uint256 newTokenId, uint256 carTokenId, uint256 partTokenId);\r\n\r\n    constructor() ERC721(\"CarNFT\", \"CAR\") {}\r\n\r\n    function createCarNFT(\r\n        string memory make,\r\n        string memory model,\r\n        uint256 year,\r\n        string memory imageURI,\r\n        string memory description,\r\n        string memory tokenURI\r\n    ) public returns (uint256) {\r\n        _tokenIds.increment();\r\n\r\n        uint256 newItemId = _tokenIds.current();\r\n        _mint(msg.sender, newItemId);\r\n        _setTokenURI(newItemId, tokenURI);\r\n\r\n        cars[newItemId] = Car(make, model, year, imageURI, description);\r\n\r\n        emit CarNFTCreated(newItemId, make, model, year);\r\n\r\n        return newItemId;\r\n    }\r\n\r\n    function createPartNFT(\r\n        string memory name,\r\n        string memory typePart,\r\n        string memory imageURI,\r\n        string memory rank,\r\n        string memory description,\r\n        string memory tokenURI\r\n    ) public returns (uint256) {\r\n        _tokenIds.increment();\r\n\r\n        uint256 newItemId = _tokenIds.current();\r\n        _mint(msg.sender, newItemId);\r\n        _setTokenURI(newItemId, tokenURI);\r\n\r\n        parts[newItemId] = Part(name, typePart, imageURI, rank, description);\r\n\r\n        emit PartNFTCreated(newItemId, name, typePart, rank);\r\n\r\n        return newItemId;\r\n    }\r\n\r\n    // Fonction pour fusionner un NFT de voiture avec un NFT de pice\r\n    function fuseCarPart(uint256 carTokenId, uint256 partTokenId) public returns (uint256) {\r\n        require(ownerOf(carTokenId) == msg.sender, \"You must own the car NFT to fuse with a part.\");\r\n        require(ownerOf(partTokenId) == msg.sender, \"You must own the part NFT to fuse.\");\r\n\r\n        _tokenIds.increment();\r\n        uint256 newTokenId = _tokenIds.current();\r\n\r\n        Car memory car = cars[carTokenId];\r\n\r\n        string memory newTokenURI = string(abi.encodePacked(car.make, \"_\", car.model, \"_fused\"));\r\n        string memory newImageURI = car.imageURI; \r\n        string memory newDescription = string(abi.encodePacked(car.desc, \"test\", Strings.toString(partTokenId)));\r\n\r\n        _mint(msg.sender, newTokenId);\r\n        _setTokenURI(newTokenId, newTokenURI);\r\n\r\n        cars[newTokenId] = Car(car.make, car.model, car.year, newImageURI, newDescription);\r\n\r\n        // Brler les NFTs originaux\r\n        // _burn(carTokenId);\r\n        _burn(partTokenId);\r\n\r\n        emit NFTFused(newTokenId, carTokenId, partTokenId);\r\n\r\n        return newTokenId;\r\n    }\r\n}\r\n",
  "sourcePath": "C:\\Users\\ramse\\git\\ProjectBlockChain\\contracts\\contracts\\CarNFT.sol",
  "compiler": {
    "name": "solc",
    "version": "0.8.21+commit.d9974bed.Emscripten.clang"
  },
  "schemaVersion": "3.4.16",
  "updatedAt": "2024-01-08T14:21:27.850Z",
  "devdoc": {
    "events": {
      "Approval(address,address,uint256)": {
        "details": "Emitted when `owner` enables `approved` to manage the `tokenId` token."
      },
      "ApprovalForAll(address,address,bool)": {
        "details": "Emitted when `owner` enables or disables (`approved`) `operator` to manage all of its assets."
      },
      "BatchMetadataUpdate(uint256,uint256)": {
        "details": "This event emits when the metadata of a range of tokens is changed. So that the third-party platforms such as NFT market could timely update the images and related attributes of the NFTs."
      },
      "MetadataUpdate(uint256)": {
        "details": "This event emits when the metadata of a token is changed. So that the third-party platforms such as NFT market could timely update the images and related attributes of the NFT."
      },
      "Transfer(address,address,uint256)": {
        "details": "Emitted when `tokenId` token is transferred from `from` to `to`."
      }
    },
    "kind": "dev",
    "methods": {
      "approve(address,uint256)": {
        "details": "See {IERC721-approve}."
      },
      "balanceOf(address)": {
        "details": "See {IERC721-balanceOf}."
      },
      "getApproved(uint256)": {
        "details": "See {IERC721-getApproved}."
      },
      "isApprovedForAll(address,address)": {
        "details": "See {IERC721-isApprovedForAll}."
      },
      "name()": {
        "details": "See {IERC721Metadata-name}."
      },
      "owner()": {
        "details": "Returns the address of the current owner."
      },
      "ownerOf(uint256)": {
        "details": "See {IERC721-ownerOf}."
      },
      "renounceOwnership()": {
        "details": "Leaves the contract without owner. It will not be possible to call `onlyOwner` functions. Can only be called by the current owner. NOTE: Renouncing ownership will leave the contract without an owner, thereby disabling any functionality that is only available to the owner."
      },
      "safeTransferFrom(address,address,uint256)": {
        "details": "See {IERC721-safeTransferFrom}."
      },
      "safeTransferFrom(address,address,uint256,bytes)": {
        "details": "See {IERC721-safeTransferFrom}."
      },
      "setApprovalForAll(address,bool)": {
        "details": "See {IERC721-setApprovalForAll}."
      },
      "supportsInterface(bytes4)": {
        "details": "See {IERC165-supportsInterface}"
      },
      "symbol()": {
        "details": "See {IERC721Metadata-symbol}."
      },
      "tokenURI(uint256)": {
        "details": "See {IERC721Metadata-tokenURI}."
      },
      "transferFrom(address,address,uint256)": {
        "details": "See {IERC721-transferFrom}."
      },
      "transferOwnership(address)": {
        "details": "Transfers ownership of the contract to a new account (`newOwner`). Can only be called by the current owner."
      }
    },
    "version": 1
  },
  "userdoc": {
    "kind": "user",
    "methods": {},
    "version": 1
  }
}