{
  "contractName": "CarNFT",
  "abi": [
    {
      "inputs": [],
      "stateMutability": "nonpayable",
      "type": "constructor"
    },
    {
      "anonymous": false,
      "inputs": [
        {
          "indexed": true,
          "internalType": "address",
          "name": "owner",
          "type": "address"
        },
        {
          "indexed": true,
          "internalType": "address",
          "name": "approved",
          "type": "address"
        },
        {
          "indexed": true,
          "internalType": "uint256",
          "name": "tokenId",
          "type": "uint256"
        }
      ],
      "name": "Approval",
      "type": "event"
    },
    {
      "anonymous": false,
      "inputs": [
        {
          "indexed": true,
          "internalType": "address",
          "name": "owner",
          "type": "address"
        },
        {
          "indexed": true,
          "internalType": "address",
          "name": "operator",
          "type": "address"
        },
        {
          "indexed": false,
          "internalType": "bool",
          "name": "approved",
          "type": "bool"
        }
      ],
      "name": "ApprovalForAll",
      "type": "event"
    },
    {
      "anonymous": false,
      "inputs": [
        {
          "indexed": false,
          "internalType": "uint256",
          "name": "_fromTokenId",
          "type": "uint256"
        },
        {
          "indexed": false,
          "internalType": "uint256",
          "name": "_toTokenId",
          "type": "uint256"
        }
      ],
      "name": "BatchMetadataUpdate",
      "type": "event"
    },
    {
      "anonymous": false,
      "inputs": [
        {
          "indexed": false,
          "internalType": "uint256",
          "name": "tokenId",
          "type": "uint256"
        },
        {
          "indexed": false,
          "internalType": "string",
          "name": "make",
          "type": "string"
        },
        {
          "indexed": false,
          "internalType": "string",
          "name": "model",
          "type": "string"
        },
        {
          "indexed": false,
          "internalType": "uint256",
          "name": "year",
          "type": "uint256"
        }
      ],
      "name": "CarNFTCreated",
      "type": "event"
    },
    {
      "anonymous": false,
      "inputs": [
        {
          "indexed": false,
          "internalType": "uint256",
          "name": "_tokenId",
          "type": "uint256"
        }
      ],
      "name": "MetadataUpdate",
      "type": "event"
    },
    {
      "anonymous": false,
      "inputs": [
        {
          "indexed": false,
          "internalType": "uint256",
          "name": "newTokenId",
          "type": "uint256"
        },
        {
          "indexed": false,
          "internalType": "uint256",
          "name": "carTokenId",
          "type": "uint256"
        },
        {
          "indexed": false,
          "internalType": "uint256",
          "name": "partTokenId",
          "type": "uint256"
        }
      ],
      "name": "NFTFused",
      "type": "event"
    },
    {
      "anonymous": false,
      "inputs": [
        {
          "indexed": true,
          "internalType": "address",
          "name": "previousOwner",
          "type": "address"
        },
        {
          "indexed": true,
          "internalType": "address",
          "name": "newOwner",
          "type": "address"
        }
      ],
      "name": "OwnershipTransferred",
      "type": "event"
    },
    {
      "anonymous": false,
      "inputs": [
        {
          "indexed": false,
          "internalType": "uint256",
          "name": "tokenId",
          "type": "uint256"
        },
        {
          "indexed": false,
          "internalType": "string",
          "name": "name",
          "type": "string"
        },
        {
          "indexed": false,
          "internalType": "string",
          "name": "typePart",
          "type": "string"
        },
        {
          "indexed": false,
          "internalType": "string",
          "name": "rank",
          "type": "string"
        }
      ],
      "name": "PartNFTCreated",
      "type": "event"
    },
    {
      "anonymous": false,
      "inputs": [
        {
          "indexed": true,
          "internalType": "address",
          "name": "from",
          "type": "address"
        },
        {
          "indexed": true,
          "internalType": "address",
          "name": "to",
          "type": "address"
        },
        {
          "indexed": true,
          "internalType": "uint256",
          "name": "tokenId",
          "type": "uint256"
        }
      ],
      "name": "Transfer",
      "type": "event"
    },
    {
      "inputs": [
        {
          "internalType": "address",
          "name": "to",
          "type": "address"
        },
        {
          "internalType": "uint256",
          "name": "tokenId",
          "type": "uint256"
        }
      ],
      "name": "approve",
      "outputs": [],
      "stateMutability": "nonpayable",
      "type": "function"
    },
    {
      "inputs": [
        {
          "internalType": "address",
          "name": "owner",
          "type": "address"
        }
      ],
      "name": "balanceOf",
      "outputs": [
        {
          "internalType": "uint256",
          "name": "",
          "type": "uint256"
        }
      ],
      "stateMutability": "view",
      "type": "function",
      "constant": true
    },
    {
      "inputs": [
        {
          "internalType": "uint256",
          "name": "",
          "type": "uint256"
        }
      ],
      "name": "cars",
      "outputs": [
        {
          "internalType": "string",
          "name": "make",
          "type": "string"
        },
        {
          "internalType": "string",
          "name": "model",
          "type": "string"
        },
        {
          "internalType": "uint256",
          "name": "year",
          "type": "uint256"
        },
        {
          "internalType": "string",
          "name": "imageURI",
          "type": "string"
        },
        {
          "internalType": "string",
          "name": "desc",
          "type": "string"
        }
      ],
      "stateMutability": "view",
      "type": "function",
      "constant": true
    },
    {
      "inputs": [
        {
          "internalType": "uint256",
          "name": "tokenId",
          "type": "uint256"
        }
      ],
      "name": "getApproved",
      "outputs": [
        {
          "internalType": "address",
          "name": "",
          "type": "address"
        }
      ],
      "stateMutability": "view",
      "type": "function",
      "constant": true
    },
    {
      "inputs": [
        {
          "internalType": "address",
          "name": "owner",
          "type": "address"
        },
        {
          "internalType": "address",
          "name": "operator",
          "type": "address"
        }
      ],
      "name": "isApprovedForAll",
      "outputs": [
        {
          "internalType": "bool",
          "name": "",
          "type": "bool"
        }
      ],
      "stateMutability": "view",
      "type": "function",
      "constant": true
    },
    {
      "inputs": [],
      "name": "name",
      "outputs": [
        {
          "internalType": "string",
          "name": "",
          "type": "string"
        }
      ],
      "stateMutability": "view",
      "type": "function",
      "constant": true
    },
    {
      "inputs": [],
      "name": "owner",
      "outputs": [
        {
          "internalType": "address",
          "name": "",
          "type": "address"
        }
      ],
      "stateMutability": "view",
      "type": "function",
      "constant": true
    },
    {
      "inputs": [
        {
          "internalType": "uint256",
          "name": "tokenId",
          "type": "uint256"
        }
      ],
      "name": "ownerOf",
      "outputs": [
        {
          "internalType": "address",
          "name": "",
          "type": "address"
        }
      ],
      "stateMutability": "view",
      "type": "function",
      "constant": true
    },
    {
      "inputs": [
        {
          "internalType": "uint256",
          "name": "",
          "type": "uint256"
        }
      ],
      "name": "parts",
      "outputs": [
        {
          "internalType": "string",
          "name": "name",
          "type": "string"
        },
        {
          "internalType": "string",
          "name": "typePart",
          "type": "string"
        },
        {
          "internalType": "string",
          "name": "imageURI",
          "type": "string"
        },
        {
          "internalType": "string",
          "name": "rank",
          "type": "string"
        },
        {
          "internalType": "string",
          "name": "desc",
          "type": "string"
        }
      ],
      "stateMutability": "view",
      "type": "function",
      "constant": true
    },
    {
      "inputs": [],
      "name": "renounceOwnership",
      "outputs": [],
      "stateMutability": "nonpayable",
      "type": "function"
    },
    {
      "inputs": [
        {
          "internalType": "address",
          "name": "from",
          "type": "address"
        },
        {
          "internalType": "address",
          "name": "to",
          "type": "address"
        },
        {
          "internalType": "uint256",
          "name": "tokenId",
          "type": "uint256"
        }
      ],
      "name": "safeTransferFrom",
      "outputs": [],
      "stateMutability": "nonpayable",
      "type": "function"
    },
    {
      "inputs": [
        {
          "internalType": "address",
          "name": "from",
          "type": "address"
        },
        {
          "internalType": "address",
          "name": "to",
          "type": "address"
        },
        {
          "internalType": "uint256",
          "name": "tokenId",
          "type": "uint256"
        },
        {
          "internalType": "bytes",
          "name": "data",
          "type": "bytes"
        }
      ],
      "name": "safeTransferFrom",
      "outputs": [],
      "stateMutability": "nonpayable",
      "type": "function"
    },
    {
      "inputs": [
        {
          "internalType": "address",
          "name": "operator",
          "type": "address"
        },
        {
          "internalType": "bool",
          "name": "approved",
          "type": "bool"
        }
      ],
      "name": "setApprovalForAll",
      "outputs": [],
      "stateMutability": "nonpayable",
      "type": "function"
    },
    {
      "inputs": [
        {
          "internalType": "bytes4",
          "name": "interfaceId",
          "type": "bytes4"
        }
      ],
      "name": "supportsInterface",
      "outputs": [
        {
          "internalType": "bool",
          "name": "",
          "type": "bool"
        }
      ],
      "stateMutability": "view",
      "type": "function",
      "constant": true
    },
    {
      "inputs": [],
      "name": "symbol",
      "outputs": [
        {
          "internalType": "string",
          "name": "",
          "type": "string"
        }
      ],
      "stateMutability": "view",
      "type": "function",
      "constant": true
    },
    {
      "inputs": [
        {
          "internalType": "uint256",
          "name": "tokenId",
          "type": "uint256"
        }
      ],
      "name": "tokenURI",
      "outputs": [
        {
          "internalType": "string",
          "name": "",
          "type": "string"
        }
      ],
      "stateMutability": "view",
      "type": "function",
      "constant": true
    },
    {
      "inputs": [
        {
          "internalType": "address",
          "name": "from",
          "type": "address"
        },
        {
          "internalType": "address",
          "name": "to",
          "type": "address"
        },
        {
          "internalType": "uint256",
          "name": "tokenId",
          "type": "uint256"
        }
      ],
      "name": "transferFrom",
      "outputs": [],
      "stateMutability": "nonpayable",
      "type": "function"
    },
    {
      "inputs": [
        {
          "internalType": "address",
          "name": "newOwner",
          "type": "address"
        }
      ],
      "name": "transferOwnership",
      "outputs": [],
      "stateMutability": "nonpayable",
      "type": "function"
    },
    {
      "inputs": [
        {
          "internalType": "string",
          "name": "make",
          "type": "string"
        },
        {
          "internalType": "string",
          "name": "model",
          "type": "string"
        },
        {
          "internalType": "uint256",
          "name": "year",
          "type": "uint256"
        },
        {
          "internalType": "string",
          "name": "imageURI",
          "type": "string"
        },
        {
          "internalType": "string",
          "name": "description",
          "type": "string"
        },
        {
          "internalType": "string",
          "name": "tokenURI",
          "type": "string"
        }
      ],
      "name": "createCarNFT",
      "outputs": [
        {
          "internalType": "uint256",
          "name": "",
          "type": "uint256"
        }
      ],
      "stateMutability": "nonpayable",
      "type": "function"
    },
    {
      "inputs": [
        {
          "internalType": "string",
          "name": "name",
          "type": "string"
        },
        {
          "internalType": "string",
          "name": "typePart",
          "type": "string"
        },
        {
          "internalType": "string",
          "name": "imageURI",
          "type": "string"
        },
        {
          "internalType": "string",
          "name": "rank",
          "type": "string"
        },
        {
          "internalType": "string",
          "name": "description",
          "type": "string"
        },
        {
          "internalType": "string",
          "name": "tokenURI",
          "type": "string"
        }
      ],
      "name": "createPartNFT",
      "outputs": [
        {
          "internalType": "uint256",
          "name": "",
          "type": "uint256"
        }
      ],
      "stateMutability": "nonpayable",
      "type": "function"
    },
    {
      "inputs": [
        {
          "internalType": "uint256",
          "name": "carTokenId",
          "type": "uint256"
        },
        {
          "internalType": "uint256",
          "name": "partTokenId",
          "type": "uint256"
        }
      ],
      "name": "fuseCarPart",
      "outputs": [
        {
          "internalType": "uint256",
          "name": "",
          "type": "uint256"
        }
      ],
      "stateMutability": "nonpayable",
      "type": "function"
    }
  ],
  "bytecode": "0x60806040523480156200001157600080fd5b506040518060400160405280600681526020017f4361724e465400000000000000000000000000000000000000000000000000008152506040518060400160405280600381526020017f4341520000000000000000000000000000000000000000000000000000000000815250816000908051906020019062000096929190620001a6565b508060019080519060200190620000af929190620001a6565b505050620000d2620000c6620000d860201b60201c565b620000e060201b60201c565b620002bb565b600033905090565b6000600760009054906101000a900473ffffffffffffffffffffffffffffffffffffffff16905081600760006101000a81548173ffffffffffffffffffffffffffffffffffffffff021916908373ffffffffffffffffffffffffffffffffffffffff1602179055508173ffffffffffffffffffffffffffffffffffffffff168173ffffffffffffffffffffffffffffffffffffffff167f8be0079c531659141344cd1fd0a4f28419497f9722a3daafe3b4186f6b6457e060405160405180910390a35050565b828054620001b49062000256565b90600052602060002090601f016020900481019282620001d8576000855562000224565b82601f10620001f357805160ff191683800117855562000224565b8280016001018555821562000224579182015b828111156200022357825182559160200191906001019062000206565b5b50905062000233919062000237565b5090565b5b808211156200025257600081600090555060010162000238565b5090565b600060028204905060018216806200026f57607f821691505b602082108114156200028657620002856200028c565b5b50919050565b7f4e487b7100000000000000000000000000000000000000000000000000000000600052602260045260246000fd5b6142e580620002cb6000396000f3fe608060405234801561001057600080fd5b50600436106101375760003560e01c806370a08231116100b8578063b88d4fde1161007c578063b88d4fde14610360578063c87b56dd1461037c578063c9eb4662146103ac578063e985e9c5146103e0578063f2fde38b14610410578063f7746e361461042c57610137565b806370a08231146102ce578063715018a6146102fe5780638da5cb5b1461030857806395d89b4114610326578063a22cb4651461034457610137565b80632507b783116100ff5780632507b783146101f257806333d1ea6b1461022257806342842e0e146102525780636352211e1461026e5780636a9f1eb31461029e57610137565b806301ffc9a71461013c57806306fdde031461016c578063081812fc1461018a578063095ea7b3146101ba57806323b872dd146101d6575b600080fd5b61015660048036038101906101519190613005565b610460565b6040516101639190613733565b60405180910390f35b6101746104c1565b604051610181919061374e565b60405180910390f35b6101a4600480360381019061019f9190613271565b610553565b6040516101b191906136cc565b60405180910390f35b6101d460048036038101906101cf9190612fc9565b610599565b005b6101f060048036038101906101eb9190612ec3565b6106b1565b005b61020c60048036038101906102079190613170565b610711565b6040516102199190613a55565b60405180910390f35b61023c6004803603810190610237919061329a565b610845565b6040516102499190613a55565b60405180910390f35b61026c60048036038101906102679190612ec3565b610d55565b005b61028860048036038101906102839190613271565b610d75565b60405161029591906136cc565b60405180910390f35b6102b860048036038101906102b39190613057565b610dfc565b6040516102c59190613a55565b60405180910390f35b6102e860048036038101906102e39190612e5e565b610f43565b6040516102f59190613a55565b60405180910390f35b610306610ffb565b005b61031061100f565b60405161031d91906136cc565b60405180910390f35b61032e611039565b60405161033b919061374e565b60405180910390f35b61035e60048036038101906103599190612f8d565b6110cb565b005b61037a60048036038101906103759190612f12565b6110e1565b005b61039660048036038101906103919190613271565b611143565b6040516103a3919061374e565b60405180910390f35b6103c660048036038101906103c19190613271565b611256565b6040516103d7959493929190613770565b60405180910390f35b6103fa60048036038101906103f59190612e87565b611534565b6040516104079190613733565b60405180910390f35b61042a60048036038101906104259190612e5e565b6115c8565b005b61044660048036038101906104419190613271565b61164c565b6040516104579594939291906137e6565b60405180910390f35b6000634906490660e01b7bffffffffffffffffffffffffffffffffffffffffffffffffffffffff1916827bffffffffffffffffffffffffffffffffffffffffffffffffffffffff191614806104ba57506104b9826118a2565b5b9050919050565b6060600080546104d090613cd4565b80601f01602080910402602001604051908101604052809291908181526020018280546104fc90613cd4565b80156105495780601f1061051e57610100808354040283529160200191610549565b820191906000526020600020905b81548152906001019060200180831161052c57829003601f168201915b5050505050905090565b600061055e82611984565b6004600083815260200190815260200160002060009054906101000a900473ffffffffffffffffffffffffffffffffffffffff169050919050565b60006105a482610d75565b90508073ffffffffffffffffffffffffffffffffffffffff168373ffffffffffffffffffffffffffffffffffffffff161415610615576040517f08c379a000000000000000000000000000000000000000000000000000000000815260040161060c90613a15565b60405180910390fd5b8073ffffffffffffffffffffffffffffffffffffffff166106346119cf565b73ffffffffffffffffffffffffffffffffffffffff16148061066357506106628161065d6119cf565b611534565b5b6106a2576040517f08c379a000000000000000000000000000000000000000000000000000000000815260040161069990613a35565b60405180910390fd5b6106ac83836119d7565b505050565b6106c26106bc6119cf565b82611a90565b610701576040517f08c379a00000000000000000000000000000000000000000000000000000000081526004016106f890613855565b60405180910390fd5b61070c838383611b25565b505050565b600061071d6008611e1f565b60006107296008611e35565b90506107353382611e43565b61073f8184612061565b6040518060a0016040528089815260200188815260200187815260200186815260200185815250600960008381526020019081526020016000206000820151816000019080519060200190610795929190612c42565b5060208201518160010190805190602001906107b2929190612c42565b506040820151816002015560608201518160030190805190602001906107d9929190612c42565b5060808201518160040190805190602001906107f6929190612c42565b509050507f6fe42f42d7e31cd220a37c97111fbfceda91a95ed77ea15b7e4d8ffd37a879278189898960405161082f9493929190613aca565b60405180910390a1809150509695505050505050565b60003373ffffffffffffffffffffffffffffffffffffffff1661086784610d75565b73ffffffffffffffffffffffffffffffffffffffff16146108bd576040517f08c379a00000000000000000000000000000000000000000000000000000000081526004016108b490613955565b60405180910390fd5b3373ffffffffffffffffffffffffffffffffffffffff166108dd83610d75565b73ffffffffffffffffffffffffffffffffffffffff1614610933576040517f08c379a000000000000000000000000000000000000000000000000000000000815260040161092a90613935565b60405180910390fd5b61093d6008611e1f565b60006109496008611e35565b90506000600960008681526020019081526020016000206040518060a001604052908160008201805461097b90613cd4565b80601f01602080910402602001604051908101604052809291908181526020018280546109a790613cd4565b80156109f45780601f106109c9576101008083540402835291602001916109f4565b820191906000526020600020905b8154815290600101906020018083116109d757829003601f168201915b50505050508152602001600182018054610a0d90613cd4565b80601f0160208091040260200160405190810160405280929190818152602001828054610a3990613cd4565b8015610a865780601f10610a5b57610100808354040283529160200191610a86565b820191906000526020600020905b815481529060010190602001808311610a6957829003601f168201915b5050505050815260200160028201548152602001600382018054610aa990613cd4565b80601f0160208091040260200160405190810160405280929190818152602001828054610ad590613cd4565b8015610b225780601f10610af757610100808354040283529160200191610b22565b820191906000526020600020905b815481529060010190602001808311610b0557829003601f168201915b50505050508152602001600482018054610b3b90613cd4565b80601f0160208091040260200160405190810160405280929190818152602001828054610b6790613cd4565b8015610bb45780601f10610b8957610100808354040283529160200191610bb4565b820191906000526020600020905b815481529060010190602001808311610b9757829003601f168201915b5050505050815250509050600081600001518260200151604051602001610bdc929190613692565b604051602081830303815290604052905060008260600151905060008360800151610c068861210c565b604051602001610c17929190613663565b6040516020818303038152906040529050610c323386611e43565b610c3c8584612061565b6040518060a0016040528085600001518152602001856020015181526020018560400151815260200183815260200182815250600960008781526020019081526020016000206000820151816000019080519060200190610c9e929190612c42565b506020820151816001019080519060200190610cbb929190612c42565b50604082015181600201556060820151816003019080519060200190610ce2929190612c42565b506080820151816004019080519060200190610cff929190612c42565b50905050610d0c87612230565b7fcdc705de6a8173f225a14aefb8e4ba2fcb3f7f006a431329eb4967e1db5cbbc1858989604051610d3f93929190613b1d565b60405180910390a1849550505050505092915050565b610d70838383604051806020016040528060008152506110e1565b505050565b600080610d8183612283565b9050600073ffffffffffffffffffffffffffffffffffffffff168173ffffffffffffffffffffffffffffffffffffffff161415610df3576040517f08c379a0000000000000000000000000000000000000000000000000000000008152600401610dea906139f5565b60405180910390fd5b80915050919050565b6000610e086008611e1f565b6000610e146008611e35565b9050610e203382611e43565b610e2a8184612061565b6040518060a0016040528089815260200188815260200187815260200186815260200185815250600a60008381526020019081526020016000206000820151816000019080519060200190610e80929190612c42565b506020820151816001019080519060200190610e9d929190612c42565b506040820151816002019080519060200190610eba929190612c42565b506060820151816003019080519060200190610ed7929190612c42565b506080820151816004019080519060200190610ef4929190612c42565b509050507f1bb791fc3f2bc225fbf4d29452060230db7a98b287bad662bdf57a0925d53b4e81898988604051610f2d9493929190613a70565b60405180910390a1809150509695505050505050565b60008073ffffffffffffffffffffffffffffffffffffffff168273ffffffffffffffffffffffffffffffffffffffff161415610fb4576040517f08c379a0000000000000000000000000000000000000000000000000000000008152600401610fab90613975565b60405180910390fd5b600360008373ffffffffffffffffffffffffffffffffffffffff1673ffffffffffffffffffffffffffffffffffffffff168152602001908152602001600020549050919050565b6110036122c0565b61100d600061233e565b565b6000600760009054906101000a900473ffffffffffffffffffffffffffffffffffffffff16905090565b60606001805461104890613cd4565b80601f016020809104026020016040519081016040528092919081815260200182805461107490613cd4565b80156110c15780601f10611096576101008083540402835291602001916110c1565b820191906000526020600020905b8154815290600101906020018083116110a457829003601f168201915b5050505050905090565b6110dd6110d66119cf565b8383612404565b5050565b6110f26110ec6119cf565b83611a90565b611131576040517f08c379a000000000000000000000000000000000000000000000000000000000815260040161112890613855565b60405180910390fd5b61113d84848484612571565b50505050565b606061114e82611984565b600060066000848152602001908152602001600020805461116e90613cd4565b80601f016020809104026020016040519081016040528092919081815260200182805461119a90613cd4565b80156111e75780601f106111bc576101008083540402835291602001916111e7565b820191906000526020600020905b8154815290600101906020018083116111ca57829003601f168201915b5050505050905060006111f86125cd565b905060008151141561120e578192505050611251565b60008251111561124357808260405160200161122b92919061363f565b60405160208183030381529060405292505050611251565b61124c846125e4565b925050505b919050565b600a60205280600052604060002060009150905080600001805461127990613cd4565b80601f01602080910402602001604051908101604052809291908181526020018280546112a590613cd4565b80156112f25780601f106112c7576101008083540402835291602001916112f2565b820191906000526020600020905b8154815290600101906020018083116112d557829003601f168201915b50505050509080600101805461130790613cd4565b80601f016020809104026020016040519081016040528092919081815260200182805461133390613cd4565b80156113805780601f1061135557610100808354040283529160200191611380565b820191906000526020600020905b81548152906001019060200180831161136357829003601f168201915b50505050509080600201805461139590613cd4565b80601f01602080910402602001604051908101604052809291908181526020018280546113c190613cd4565b801561140e5780601f106113e35761010080835404028352916020019161140e565b820191906000526020600020905b8154815290600101906020018083116113f157829003601f168201915b50505050509080600301805461142390613cd4565b80601f016020809104026020016040519081016040528092919081815260200182805461144f90613cd4565b801561149c5780601f106114715761010080835404028352916020019161149c565b820191906000526020600020905b81548152906001019060200180831161147f57829003601f168201915b5050505050908060040180546114b190613cd4565b80601f01602080910402602001604051908101604052809291908181526020018280546114dd90613cd4565b801561152a5780601f106114ff5761010080835404028352916020019161152a565b820191906000526020600020905b81548152906001019060200180831161150d57829003601f168201915b5050505050905085565b6000600560008473ffffffffffffffffffffffffffffffffffffffff1673ffffffffffffffffffffffffffffffffffffffff16815260200190815260200160002060008373ffffffffffffffffffffffffffffffffffffffff1673ffffffffffffffffffffffffffffffffffffffff16815260200190815260200160002060009054906101000a900460ff16905092915050565b6115d06122c0565b600073ffffffffffffffffffffffffffffffffffffffff168173ffffffffffffffffffffffffffffffffffffffff161415611640576040517f08c379a000000000000000000000000000000000000000000000000000000000815260040161163790613895565b60405180910390fd5b6116498161233e565b50565b600960205280600052604060002060009150905080600001805461166f90613cd4565b80601f016020809104026020016040519081016040528092919081815260200182805461169b90613cd4565b80156116e85780601f106116bd576101008083540402835291602001916116e8565b820191906000526020600020905b8154815290600101906020018083116116cb57829003601f168201915b5050505050908060010180546116fd90613cd4565b80601f016020809104026020016040519081016040528092919081815260200182805461172990613cd4565b80156117765780601f1061174b57610100808354040283529160200191611776565b820191906000526020600020905b81548152906001019060200180831161175957829003601f168201915b50505050509080600201549080600301805461179190613cd4565b80601f01602080910402602001604051908101604052809291908181526020018280546117bd90613cd4565b801561180a5780601f106117df5761010080835404028352916020019161180a565b820191906000526020600020905b8154815290600101906020018083116117ed57829003601f168201915b50505050509080600401805461181f90613cd4565b80601f016020809104026020016040519081016040528092919081815260200182805461184b90613cd4565b80156118985780601f1061186d57610100808354040283529160200191611898565b820191906000526020600020905b81548152906001019060200180831161187b57829003601f168201915b5050505050905085565b60007f80ac58cd000000000000000000000000000000000000000000000000000000007bffffffffffffffffffffffffffffffffffffffffffffffffffffffff1916827bffffffffffffffffffffffffffffffffffffffffffffffffffffffff1916148061196d57507f5b5e139f000000000000000000000000000000000000000000000000000000007bffffffffffffffffffffffffffffffffffffffffffffffffffffffff1916827bffffffffffffffffffffffffffffffffffffffffffffffffffffffff1916145b8061197d575061197c8261264c565b5b9050919050565b61198d816126b6565b6119cc576040517f08c379a00000000000000000000000000000000000000000000000000000000081526004016119c3906139f5565b60405180910390fd5b50565b600033905090565b816004600083815260200190815260200160002060006101000a81548173ffffffffffffffffffffffffffffffffffffffff021916908373ffffffffffffffffffffffffffffffffffffffff160217905550808273ffffffffffffffffffffffffffffffffffffffff16611a4a83610d75565b73ffffffffffffffffffffffffffffffffffffffff167f8c5be1e5ebec7d5bd14f71427d1e84f3dd0314c0f7b2291e5b200ac8c7c3b92560405160405180910390a45050565b600080611a9c83610d75565b90508073ffffffffffffffffffffffffffffffffffffffff168473ffffffffffffffffffffffffffffffffffffffff161480611ade5750611add8185611534565b5b80611b1c57508373ffffffffffffffffffffffffffffffffffffffff16611b0484610553565b73ffffffffffffffffffffffffffffffffffffffff16145b91505092915050565b8273ffffffffffffffffffffffffffffffffffffffff16611b4582610d75565b73ffffffffffffffffffffffffffffffffffffffff1614611b9b576040517f08c379a0000000000000000000000000000000000000000000000000000000008152600401611b92906138b5565b60405180910390fd5b600073ffffffffffffffffffffffffffffffffffffffff168273ffffffffffffffffffffffffffffffffffffffff161415611c0b576040517f08c379a0000000000000000000000000000000000000000000000000000000008152600401611c02906138f5565b60405180910390fd5b611c1883838360016126f7565b8273ffffffffffffffffffffffffffffffffffffffff16611c3882610d75565b73ffffffffffffffffffffffffffffffffffffffff1614611c8e576040517f08c379a0000000000000000000000000000000000000000000000000000000008152600401611c85906138b5565b60405180910390fd5b6004600082815260200190815260200160002060006101000a81549073ffffffffffffffffffffffffffffffffffffffff02191690556001600360008573ffffffffffffffffffffffffffffffffffffffff1673ffffffffffffffffffffffffffffffffffffffff168152602001908152602001600020600082825403925050819055506001600360008473ffffffffffffffffffffffffffffffffffffffff1673ffffffffffffffffffffffffffffffffffffffff16815260200190815260200160002060008282540192505081905550816002600083815260200190815260200160002060006101000a81548173ffffffffffffffffffffffffffffffffffffffff021916908373ffffffffffffffffffffffffffffffffffffffff160217905550808273ffffffffffffffffffffffffffffffffffffffff168473ffffffffffffffffffffffffffffffffffffffff167fddf252ad1be2c89b69c2b068fc378daa952ba7f163c4a11628f55a4df523b3ef60405160405180910390a4611e1a83838360016126fd565b505050565b6001816000016000828254019250508190555050565b600081600001549050919050565b600073ffffffffffffffffffffffffffffffffffffffff168273ffffffffffffffffffffffffffffffffffffffff161415611eb3576040517f08c379a0000000000000000000000000000000000000000000000000000000008152600401611eaa906139b5565b60405180910390fd5b611ebc816126b6565b15611efc576040517f08c379a0000000000000000000000000000000000000000000000000000000008152600401611ef3906138d5565b60405180910390fd5b611f0a6000838360016126f7565b611f13816126b6565b15611f53576040517f08c379a0000000000000000000000000000000000000000000000000000000008152600401611f4a906138d5565b60405180910390fd5b6001600360008473ffffffffffffffffffffffffffffffffffffffff1673ffffffffffffffffffffffffffffffffffffffff16815260200190815260200160002060008282540192505081905550816002600083815260200190815260200160002060006101000a81548173ffffffffffffffffffffffffffffffffffffffff021916908373ffffffffffffffffffffffffffffffffffffffff160217905550808273ffffffffffffffffffffffffffffffffffffffff16600073ffffffffffffffffffffffffffffffffffffffff167fddf252ad1be2c89b69c2b068fc378daa952ba7f163c4a11628f55a4df523b3ef60405160405180910390a461205d6000838360016126fd565b5050565b61206a826126b6565b6120a9576040517f08c379a00000000000000000000000000000000000000000000000000000000081526004016120a090613995565b60405180910390fd5b806006600084815260200190815260200160002090805190602001906120d0929190612c42565b507ff8e1a15aba9398e019f0b49df1a4fde98ee17ae345cb5f6b5e2c27f5033e8ce7826040516121009190613a55565b60405180910390a15050565b60606000600161211b84612703565b01905060008167ffffffffffffffff811115612160577f4e487b7100000000000000000000000000000000000000000000000000000000600052604160045260246000fd5b6040519080825280601f01601f1916602001820160405280156121925781602001600182028036833780820191505090505b509050600082602001820190505b600115612225578080600190039150507f3031323334353637383961626364656600000000000000000000000000000000600a86061a8153600a858161220f577f4e487b7100000000000000000000000000000000000000000000000000000000600052601260045260246000fd5b049450600085141561222057612225565b6121a0565b819350505050919050565b6122398161293a565b600060066000838152602001908152602001600020805461225990613cd4565b9050146122805760066000828152602001908152602001600020600061227f9190612cc8565b5b50565b60006002600083815260200190815260200160002060009054906101000a900473ffffffffffffffffffffffffffffffffffffffff169050919050565b6122c86119cf565b73ffffffffffffffffffffffffffffffffffffffff166122e661100f565b73ffffffffffffffffffffffffffffffffffffffff161461233c576040517f08c379a0000000000000000000000000000000000000000000000000000000008152600401612333906139d5565b60405180910390fd5b565b6000600760009054906101000a900473ffffffffffffffffffffffffffffffffffffffff16905081600760006101000a81548173ffffffffffffffffffffffffffffffffffffffff021916908373ffffffffffffffffffffffffffffffffffffffff1602179055508173ffffffffffffffffffffffffffffffffffffffff168173ffffffffffffffffffffffffffffffffffffffff167f8be0079c531659141344cd1fd0a4f28419497f9722a3daafe3b4186f6b6457e060405160405180910390a35050565b8173ffffffffffffffffffffffffffffffffffffffff168373ffffffffffffffffffffffffffffffffffffffff161415612473576040517f08c379a000000000000000000000000000000000000000000000000000000000815260040161246a90613915565b60405180910390fd5b80600560008573ffffffffffffffffffffffffffffffffffffffff1673ffffffffffffffffffffffffffffffffffffffff16815260200190815260200160002060008473ffffffffffffffffffffffffffffffffffffffff1673ffffffffffffffffffffffffffffffffffffffff16815260200190815260200160002060006101000a81548160ff0219169083151502179055508173ffffffffffffffffffffffffffffffffffffffff168373ffffffffffffffffffffffffffffffffffffffff167f17307eab39ab6107e8899845ad3d59bd9653f200f220920489ca2b5937696c31836040516125649190613733565b60405180910390a3505050565b61257c848484611b25565b61258884848484612a88565b6125c7576040517f08c379a00000000000000000000000000000000000000000000000000000000081526004016125be90613875565b60405180910390fd5b50505050565b606060405180602001604052806000815250905090565b60606125ef82611984565b60006125f96125cd565b905060008151116126195760405180602001604052806000815250612644565b806126238461210c565b60405160200161263492919061363f565b6040516020818303038152906040525b915050919050565b60007f01ffc9a7000000000000000000000000000000000000000000000000000000007bffffffffffffffffffffffffffffffffffffffffffffffffffffffff1916827bffffffffffffffffffffffffffffffffffffffffffffffffffffffff1916149050919050565b60008073ffffffffffffffffffffffffffffffffffffffff166126d883612283565b73ffffffffffffffffffffffffffffffffffffffff1614159050919050565b50505050565b50505050565b600080600090507a184f03e93ff9f4daa797ed6e38ed64bf6a1f0100000000000000008310612787577a184f03e93ff9f4daa797ed6e38ed64bf6a1f010000000000000000838161277d577f4e487b7100000000000000000000000000000000000000000000000000000000600052601260045260246000fd5b0492506040810190505b6d04ee2d6d415b85acef810000000083106127ea576d04ee2d6d415b85acef810000000083816127e0577f4e487b7100000000000000000000000000000000000000000000000000000000600052601260045260246000fd5b0492506020810190505b662386f26fc10000831061283f57662386f26fc100008381612835577f4e487b7100000000000000000000000000000000000000000000000000000000600052601260045260246000fd5b0492506010810190505b6305f5e100831061288e576305f5e1008381612884577f4e487b7100000000000000000000000000000000000000000000000000000000600052601260045260246000fd5b0492506008810190505b61271083106128d95761271083816128cf577f4e487b7100000000000000000000000000000000000000000000000000000000600052601260045260246000fd5b0492506004810190505b606483106129225760648381612918577f4e487b7100000000000000000000000000000000000000000000000000000000600052601260045260246000fd5b0492506002810190505b600a8310612931576001810190505b80915050919050565b600061294582610d75565b90506129558160008460016126f7565b61295e82610d75565b90506004600083815260200190815260200160002060006101000a81549073ffffffffffffffffffffffffffffffffffffffff02191690556001600360008373ffffffffffffffffffffffffffffffffffffffff1673ffffffffffffffffffffffffffffffffffffffff168152602001908152602001600020600082825403925050819055506002600083815260200190815260200160002060006101000a81549073ffffffffffffffffffffffffffffffffffffffff021916905581600073ffffffffffffffffffffffffffffffffffffffff168273ffffffffffffffffffffffffffffffffffffffff167fddf252ad1be2c89b69c2b068fc378daa952ba7f163c4a11628f55a4df523b3ef60405160405180910390a4612a848160008460016126fd565b5050565b6000612aa98473ffffffffffffffffffffffffffffffffffffffff16612c1f565b15612c12578373ffffffffffffffffffffffffffffffffffffffff1663150b7a02612ad26119cf565b8786866040518563ffffffff1660e01b8152600401612af494939291906136e7565b602060405180830381600087803b158015612b0e57600080fd5b505af1925050508015612b3f57506040513d601f19601f82011682018060405250810190612b3c919061302e565b60015b612bc2573d8060008114612b6f576040519150601f19603f3d011682016040523d82523d6000602084013e612b74565b606091505b50600081511415612bba576040517f08c379a0000000000000000000000000000000000000000000000000000000008152600401612bb190613875565b60405180910390fd5b805181602001fd5b63150b7a0260e01b7bffffffffffffffffffffffffffffffffffffffffffffffffffffffff1916817bffffffffffffffffffffffffffffffffffffffffffffffffffffffff191614915050612c17565b600190505b949350505050565b6000808273ffffffffffffffffffffffffffffffffffffffff163b119050919050565b828054612c4e90613cd4565b90600052602060002090601f016020900481019282612c705760008555612cb7565b82601f10612c8957805160ff1916838001178555612cb7565b82800160010185558215612cb7579182015b82811115612cb6578251825591602001919060010190612c9b565b5b509050612cc49190612d08565b5090565b508054612cd490613cd4565b6000825580601f10612ce65750612d05565b601f016020900490600052602060002090810190612d049190612d08565b5b50565b5b80821115612d21576000816000905550600101612d09565b5090565b6000612d38612d3384613b79565b613b54565b905082815260208101848484011115612d5057600080fd5b612d5b848285613c92565b509392505050565b6000612d76612d7184613baa565b613b54565b905082815260208101848484011115612d8e57600080fd5b612d99848285613c92565b509392505050565b600081359050612db081614253565b92915050565b600081359050612dc58161426a565b92915050565b600081359050612dda81614281565b92915050565b600081519050612def81614281565b92915050565b600082601f830112612e0657600080fd5b8135612e16848260208601612d25565b91505092915050565b600082601f830112612e3057600080fd5b8135612e40848260208601612d63565b91505092915050565b600081359050612e5881614298565b92915050565b600060208284031215612e7057600080fd5b6000612e7e84828501612da1565b91505092915050565b60008060408385031215612e9a57600080fd5b6000612ea885828601612da1565b9250506020612eb985828601612da1565b9150509250929050565b600080600060608486031215612ed857600080fd5b6000612ee686828701612da1565b9350506020612ef786828701612da1565b9250506040612f0886828701612e49565b9150509250925092565b60008060008060808587031215612f2857600080fd5b6000612f3687828801612da1565b9450506020612f4787828801612da1565b9350506040612f5887828801612e49565b925050606085013567ffffffffffffffff811115612f7557600080fd5b612f8187828801612df5565b91505092959194509250565b60008060408385031215612fa057600080fd5b6000612fae85828601612da1565b9250506020612fbf85828601612db6565b9150509250929050565b60008060408385031215612fdc57600080fd5b6000612fea85828601612da1565b9250506020612ffb85828601612e49565b9150509250929050565b60006020828403121561301757600080fd5b600061302584828501612dcb565b91505092915050565b60006020828403121561304057600080fd5b600061304e84828501612de0565b91505092915050565b60008060008060008060c0878903121561307057600080fd5b600087013567ffffffffffffffff81111561308a57600080fd5b61309689828a01612e1f565b965050602087013567ffffffffffffffff8111156130b357600080fd5b6130bf89828a01612e1f565b955050604087013567ffffffffffffffff8111156130dc57600080fd5b6130e889828a01612e1f565b945050606087013567ffffffffffffffff81111561310557600080fd5b61311189828a01612e1f565b935050608087013567ffffffffffffffff81111561312e57600080fd5b61313a89828a01612e1f565b92505060a087013567ffffffffffffffff81111561315757600080fd5b61316389828a01612e1f565b9150509295509295509295565b60008060008060008060c0878903121561318957600080fd5b600087013567ffffffffffffffff8111156131a357600080fd5b6131af89828a01612e1f565b965050602087013567ffffffffffffffff8111156131cc57600080fd5b6131d889828a01612e1f565b95505060406131e989828a01612e49565b945050606087013567ffffffffffffffff81111561320657600080fd5b61321289828a01612e1f565b935050608087013567ffffffffffffffff81111561322f57600080fd5b61323b89828a01612e1f565b92505060a087013567ffffffffffffffff81111561325857600080fd5b61326489828a01612e1f565b9150509295509295509295565b60006020828403121561328357600080fd5b600061329184828501612e49565b91505092915050565b600080604083850312156132ad57600080fd5b60006132bb85828601612e49565b92505060206132cc85828601612e49565b9150509250929050565b6132df81613c1e565b82525050565b6132ee81613c30565b82525050565b60006132ff82613bdb565b6133098185613bf1565b9350613319818560208601613ca1565b61332281613d95565b840191505092915050565b600061333882613be6565b6133428185613c02565b9350613352818560208601613ca1565b61335b81613d95565b840191505092915050565b600061337182613be6565b61337b8185613c13565b935061338b818560208601613ca1565b80840191505092915050565b60006133a4602d83613c02565b91506133af82613da6565b604082019050919050565b60006133c7603283613c02565b91506133d282613df5565b604082019050919050565b60006133ea602683613c02565b91506133f582613e44565b604082019050919050565b600061340d602583613c02565b915061341882613e93565b604082019050919050565b6000613430601c83613c02565b915061343b82613ee2565b602082019050919050565b6000613453602483613c02565b915061345e82613f0b565b604082019050919050565b6000613476601983613c02565b915061348182613f5a565b602082019050919050565b6000613499602283613c02565b91506134a482613f83565b604082019050919050565b60006134bc602d83613c02565b91506134c782613fd2565b604082019050919050565b60006134df602983613c02565b91506134ea82614021565b604082019050919050565b6000613502602e83613c02565b915061350d82614070565b604082019050919050565b6000613525602083613c02565b9150613530826140bf565b602082019050919050565b6000613548600683613c13565b9150613553826140e8565b600682019050919050565b600061356b602083613c02565b915061357682614111565b602082019050919050565b600061358e600483613c13565b91506135998261413a565b600482019050919050565b60006135b1601883613c02565b91506135bc82614163565b602082019050919050565b60006135d4602183613c02565b91506135df8261418c565b604082019050919050565b60006135f7603d83613c02565b9150613602826141db565b604082019050919050565b600061361a600183613c13565b91506136258261422a565b600182019050919050565b61363981613c88565b82525050565b600061364b8285613366565b91506136578284613366565b91508190509392505050565b600061366f8285613366565b915061367a82613581565b91506136868284613366565b91508190509392505050565b600061369e8285613366565b91506136a98261360d565b91506136b58284613366565b91506136c08261353b565b91508190509392505050565b60006020820190506136e160008301846132d6565b92915050565b60006080820190506136fc60008301876132d6565b61370960208301866132d6565b6137166040830185613630565b818103606083015261372881846132f4565b905095945050505050565b600060208201905061374860008301846132e5565b92915050565b60006020820190508181036000830152613768818461332d565b905092915050565b600060a082019050818103600083015261378a818861332d565b9050818103602083015261379e818761332d565b905081810360408301526137b2818661332d565b905081810360608301526137c6818561332d565b905081810360808301526137da818461332d565b90509695505050505050565b600060a0820190508181036000830152613800818861332d565b90508181036020830152613814818761332d565b90506138236040830186613630565b8181036060830152613835818561332d565b90508181036080830152613849818461332d565b90509695505050505050565b6000602082019050818103600083015261386e81613397565b9050919050565b6000602082019050818103600083015261388e816133ba565b9050919050565b600060208201905081810360008301526138ae816133dd565b9050919050565b600060208201905081810360008301526138ce81613400565b9050919050565b600060208201905081810360008301526138ee81613423565b9050919050565b6000602082019050818103600083015261390e81613446565b9050919050565b6000602082019050818103600083015261392e81613469565b9050919050565b6000602082019050818103600083015261394e8161348c565b9050919050565b6000602082019050818103600083015261396e816134af565b9050919050565b6000602082019050818103600083015261398e816134d2565b9050919050565b600060208201905081810360008301526139ae816134f5565b9050919050565b600060208201905081810360008301526139ce81613518565b9050919050565b600060208201905081810360008301526139ee8161355e565b9050919050565b60006020820190508181036000830152613a0e816135a4565b9050919050565b60006020820190508181036000830152613a2e816135c7565b9050919050565b60006020820190508181036000830152613a4e816135ea565b9050919050565b6000602082019050613a6a6000830184613630565b92915050565b6000608082019050613a856000830187613630565b8181036020830152613a97818661332d565b90508181036040830152613aab818561332d565b90508181036060830152613abf818461332d565b905095945050505050565b6000608082019050613adf6000830187613630565b8181036020830152613af1818661332d565b90508181036040830152613b05818561332d565b9050613b146060830184613630565b95945050505050565b6000606082019050613b326000830186613630565b613b3f6020830185613630565b613b4c6040830184613630565b949350505050565b6000613b5e613b6f565b9050613b6a8282613d06565b919050565b6000604051905090565b600067ffffffffffffffff821115613b9457613b93613d66565b5b613b9d82613d95565b9050602081019050919050565b600067ffffffffffffffff821115613bc557613bc4613d66565b5b613bce82613d95565b9050602081019050919050565b600081519050919050565b600081519050919050565b600082825260208201905092915050565b600082825260208201905092915050565b600081905092915050565b6000613c2982613c68565b9050919050565b60008115159050919050565b60007fffffffff0000000000000000000000000000000000000000000000000000000082169050919050565b600073ffffffffffffffffffffffffffffffffffffffff82169050919050565b6000819050919050565b82818337600083830152505050565b60005b83811015613cbf578082015181840152602081019050613ca4565b83811115613cce576000848401525b50505050565b60006002820490506001821680613cec57607f821691505b60208210811415613d0057613cff613d37565b5b50919050565b613d0f82613d95565b810181811067ffffffffffffffff82111715613d2e57613d2d613d66565b5b80604052505050565b7f4e487b7100000000000000000000000000000000000000000000000000000000600052602260045260246000fd5b7f4e487b7100000000000000000000000000000000000000000000000000000000600052604160045260246000fd5b6000601f19601f8301169050919050565b7f4552433732313a2063616c6c6572206973206e6f7420746f6b656e206f776e6560008201527f72206f7220617070726f76656400000000000000000000000000000000000000602082015250565b7f4552433732313a207472616e7366657220746f206e6f6e20455243373231526560008201527f63656976657220696d706c656d656e7465720000000000000000000000000000602082015250565b7f4f776e61626c653a206e6577206f776e657220697320746865207a65726f206160008201527f6464726573730000000000000000000000000000000000000000000000000000602082015250565b7f4552433732313a207472616e736665722066726f6d20696e636f72726563742060008201527f6f776e6572000000000000000000000000000000000000000000000000000000602082015250565b7f4552433732313a20746f6b656e20616c7265616479206d696e74656400000000600082015250565b7f4552433732313a207472616e7366657220746f20746865207a65726f2061646460008201527f7265737300000000000000000000000000000000000000000000000000000000602082015250565b7f4552433732313a20617070726f766520746f2063616c6c657200000000000000600082015250565b7f596f75206d757374206f776e207468652070617274204e465420746f2066757360008201527f652e000000000000000000000000000000000000000000000000000000000000602082015250565b7f596f75206d757374206f776e2074686520636172204e465420746f206675736560008201527f2077697468206120706172742e00000000000000000000000000000000000000602082015250565b7f4552433732313a2061646472657373207a65726f206973206e6f74206120766160008201527f6c6964206f776e65720000000000000000000000000000000000000000000000602082015250565b7f45524337323155524953746f726167653a2055524920736574206f66206e6f6e60008201527f6578697374656e7420746f6b656e000000000000000000000000000000000000602082015250565b7f4552433732313a206d696e7420746f20746865207a65726f2061646472657373600082015250565b7f5f66757365640000000000000000000000000000000000000000000000000000600082015250565b7f4f776e61626c653a2063616c6c6572206973206e6f7420746865206f776e6572600082015250565b7f7465737400000000000000000000000000000000000000000000000000000000600082015250565b7f4552433732313a20696e76616c696420746f6b656e2049440000000000000000600082015250565b7f4552433732313a20617070726f76616c20746f2063757272656e74206f776e6560008201527f7200000000000000000000000000000000000000000000000000000000000000602082015250565b7f4552433732313a20617070726f76652063616c6c6572206973206e6f7420746f60008201527f6b656e206f776e6572206f7220617070726f76656420666f7220616c6c000000602082015250565b7f5f00000000000000000000000000000000000000000000000000000000000000600082015250565b61425c81613c1e565b811461426757600080fd5b50565b61427381613c30565b811461427e57600080fd5b50565b61428a81613c3c565b811461429557600080fd5b50565b6142a181613c88565b81146142ac57600080fd5b5056fea26469706673582212205018f5f79303c53883cbcad3f534006178a87cd983873d2ba7e74ccb8f4b36f064736f6c63430008010033",
  "immutableReferences": {},
  "source": "// SPDX-License-Identifier: MIT\r\npragma solidity ^0.8.1;\r\n\r\nimport \"@openzeppelin/contracts/token/ERC721/ERC721.sol\";\r\nimport \"@openzeppelin/contracts/token/ERC721/extensions/ERC721URIStorage.sol\";\r\nimport \"@openzeppelin/contracts/access/Ownable.sol\";\r\nimport \"@openzeppelin/contracts/utils/Counters.sol\";\r\n\r\ncontract CarNFT is ERC721URIStorage, Ownable {\r\n    using Counters for Counters.Counter;\r\n    Counters.Counter private _tokenIds;\r\n\r\n    struct Car {\r\n        string make;\r\n        string model;\r\n        uint256 year;\r\n        string imageURI; \r\n        string desc; \r\n    }\r\n\r\n\r\n    // Piece de voiture \r\n    struct Part {\r\n        string name;\r\n        string typePart;\r\n        string imageURI;\r\n        string rank; \r\n        string desc; \r\n    }\r\n\r\n    mapping(uint256 => Car) public cars;\r\n    mapping(uint256 => Part) public parts;\r\n\r\n    event CarNFTCreated(uint256 tokenId, string make, string model, uint256 year);\r\n    event PartNFTCreated(uint256 tokenId, string name, string typePart, string rank);  \r\n    event NFTFused(uint256 newTokenId, uint256 carTokenId, uint256 partTokenId);\r\n\r\n    constructor() ERC721(\"CarNFT\", \"CAR\") {}\r\n\r\n    function createCarNFT(\r\n        string memory make,\r\n        string memory model,\r\n        uint256 year,\r\n        string memory imageURI,\r\n        string memory description,\r\n        string memory tokenURI\r\n    ) public returns (uint256) {\r\n        _tokenIds.increment();\r\n\r\n        uint256 newItemId = _tokenIds.current();\r\n        _mint(msg.sender, newItemId);\r\n        _setTokenURI(newItemId, tokenURI);\r\n\r\n        cars[newItemId] = Car(make, model, year, imageURI, description);\r\n\r\n        emit CarNFTCreated(newItemId, make, model, year);\r\n\r\n        return newItemId;\r\n    }\r\n\r\n    function createPartNFT(\r\n        string memory name,\r\n        string memory typePart,\r\n        string memory imageURI,\r\n        string memory rank,\r\n        string memory description,\r\n        string memory tokenURI\r\n    ) public returns (uint256) {\r\n        _tokenIds.increment();\r\n\r\n        uint256 newItemId = _tokenIds.current();\r\n        _mint(msg.sender, newItemId);\r\n        _setTokenURI(newItemId, tokenURI);\r\n\r\n        parts[newItemId] = Part(name, typePart, imageURI, rank, description);\r\n\r\n        emit PartNFTCreated(newItemId, name, typePart, rank);\r\n\r\n        return newItemId;\r\n    }\r\n\r\n    // Fonction pour fusionner un NFT de voiture avec un NFT de pice\r\n    function fuseCarPart(uint256 carTokenId, uint256 partTokenId) public returns (uint256) {\r\n        require(ownerOf(carTokenId) == msg.sender, \"You must own the car NFT to fuse with a part.\");\r\n        require(ownerOf(partTokenId) == msg.sender, \"You must own the part NFT to fuse.\");\r\n\r\n        _tokenIds.increment();\r\n        uint256 newTokenId = _tokenIds.current();\r\n\r\n        Car memory car = cars[carTokenId];\r\n\r\n        string memory newTokenURI = string(abi.encodePacked(car.make, \"_\", car.model, \"_fused\"));\r\n        string memory newImageURI = car.imageURI; \r\n        string memory newDescription = string(abi.encodePacked(car.desc, \"test\", Strings.toString(partTokenId)));\r\n\r\n        _mint(msg.sender, newTokenId);\r\n        _setTokenURI(newTokenId, newTokenURI);\r\n\r\n        cars[newTokenId] = Car(car.make, car.model, car.year, newImageURI, newDescription);\r\n\r\n        // Brler les NFTs originaux\r\n        // _burn(carTokenId);\r\n        _burn(partTokenId);\r\n\r\n        emit NFTFused(newTokenId, carTokenId, partTokenId);\r\n\r\n        return newTokenId;\r\n    }\r\n}\r\n",
  "sourcePath": "C:\\Users\\ramse\\git\\ProjectBlockChain\\contracts\\contracts\\CarNFT.sol",
  "compiler": {
    "name": "solc",
    "version": "0.8.1+commit.df193b15.Emscripten.clang"
  },
  "schemaVersion": "3.4.16",
  "updatedAt": "2024-01-10T11:46:44.165Z",
  "networkType": "ethereum",
  "devdoc": {
    "kind": "dev",
    "methods": {
      "approve(address,uint256)": {
        "details": "See {IERC721-approve}."
      },
      "balanceOf(address)": {
        "details": "See {IERC721-balanceOf}."
      },
      "getApproved(uint256)": {
        "details": "See {IERC721-getApproved}."
      },
      "isApprovedForAll(address,address)": {
        "details": "See {IERC721-isApprovedForAll}."
      },
      "name()": {
        "details": "See {IERC721Metadata-name}."
      },
      "owner()": {
        "details": "Returns the address of the current owner."
      },
      "ownerOf(uint256)": {
        "details": "See {IERC721-ownerOf}."
      },
      "renounceOwnership()": {
        "details": "Leaves the contract without owner. It will not be possible to call `onlyOwner` functions. Can only be called by the current owner. NOTE: Renouncing ownership will leave the contract without an owner, thereby disabling any functionality that is only available to the owner."
      },
      "safeTransferFrom(address,address,uint256)": {
        "details": "See {IERC721-safeTransferFrom}."
      },
      "safeTransferFrom(address,address,uint256,bytes)": {
        "details": "See {IERC721-safeTransferFrom}."
      },
      "setApprovalForAll(address,bool)": {
        "details": "See {IERC721-setApprovalForAll}."
      },
      "supportsInterface(bytes4)": {
        "details": "See {IERC165-supportsInterface}"
      },
      "symbol()": {
        "details": "See {IERC721Metadata-symbol}."
      },
      "tokenURI(uint256)": {
        "details": "See {IERC721Metadata-tokenURI}."
      },
      "transferFrom(address,address,uint256)": {
        "details": "See {IERC721-transferFrom}."
      },
      "transferOwnership(address)": {
        "details": "Transfers ownership of the contract to a new account (`newOwner`). Can only be called by the current owner."
      }
    },
    "version": 1
  },
  "userdoc": {
    "kind": "user",
    "methods": {},
    "version": 1
  }
}