{
  "contractName": "CarNFT",
  "abi": [
    {
      "inputs": [],
      "stateMutability": "nonpayable",
      "type": "constructor"
    },
    {
      "anonymous": false,
      "inputs": [
        {
          "indexed": true,
          "internalType": "address",
          "name": "owner",
          "type": "address"
        },
        {
          "indexed": true,
          "internalType": "address",
          "name": "approved",
          "type": "address"
        },
        {
          "indexed": true,
          "internalType": "uint256",
          "name": "tokenId",
          "type": "uint256"
        }
      ],
      "name": "Approval",
      "type": "event"
    },
    {
      "anonymous": false,
      "inputs": [
        {
          "indexed": true,
          "internalType": "address",
          "name": "owner",
          "type": "address"
        },
        {
          "indexed": true,
          "internalType": "address",
          "name": "operator",
          "type": "address"
        },
        {
          "indexed": false,
          "internalType": "bool",
          "name": "approved",
          "type": "bool"
        }
      ],
      "name": "ApprovalForAll",
      "type": "event"
    },
    {
      "anonymous": false,
      "inputs": [
        {
          "indexed": false,
          "internalType": "uint256",
          "name": "_fromTokenId",
          "type": "uint256"
        },
        {
          "indexed": false,
          "internalType": "uint256",
          "name": "_toTokenId",
          "type": "uint256"
        }
      ],
      "name": "BatchMetadataUpdate",
      "type": "event"
    },
    {
      "anonymous": false,
      "inputs": [
        {
          "indexed": false,
          "internalType": "uint256",
          "name": "tokenId",
          "type": "uint256"
        },
        {
          "indexed": false,
          "internalType": "string",
          "name": "make",
          "type": "string"
        },
        {
          "indexed": false,
          "internalType": "string",
          "name": "model",
          "type": "string"
        },
        {
          "indexed": false,
          "internalType": "uint256",
          "name": "year",
          "type": "uint256"
        }
      ],
      "name": "CarNFTCreated",
      "type": "event"
    },
    {
      "anonymous": false,
      "inputs": [
        {
          "indexed": false,
          "internalType": "uint256",
          "name": "_tokenId",
          "type": "uint256"
        }
      ],
      "name": "MetadataUpdate",
      "type": "event"
    },
    {
      "anonymous": false,
      "inputs": [
        {
          "indexed": false,
          "internalType": "uint256",
          "name": "newTokenId",
          "type": "uint256"
        },
        {
          "indexed": false,
          "internalType": "uint256",
          "name": "carTokenId",
          "type": "uint256"
        },
        {
          "indexed": false,
          "internalType": "uint256",
          "name": "partTokenId",
          "type": "uint256"
        }
      ],
      "name": "NFTFused",
      "type": "event"
    },
    {
      "anonymous": false,
      "inputs": [
        {
          "indexed": true,
          "internalType": "address",
          "name": "previousOwner",
          "type": "address"
        },
        {
          "indexed": true,
          "internalType": "address",
          "name": "newOwner",
          "type": "address"
        }
      ],
      "name": "OwnershipTransferred",
      "type": "event"
    },
    {
      "anonymous": false,
      "inputs": [
        {
          "indexed": false,
          "internalType": "uint256",
          "name": "tokenId",
          "type": "uint256"
        },
        {
          "indexed": false,
          "internalType": "string",
          "name": "name",
          "type": "string"
        },
        {
          "indexed": false,
          "internalType": "string",
          "name": "typePart",
          "type": "string"
        },
        {
          "indexed": false,
          "internalType": "string",
          "name": "rank",
          "type": "string"
        }
      ],
      "name": "PartNFTCreated",
      "type": "event"
    },
    {
      "anonymous": false,
      "inputs": [
        {
          "indexed": true,
          "internalType": "address",
          "name": "from",
          "type": "address"
        },
        {
          "indexed": true,
          "internalType": "address",
          "name": "to",
          "type": "address"
        },
        {
          "indexed": true,
          "internalType": "uint256",
          "name": "tokenId",
          "type": "uint256"
        }
      ],
      "name": "Transfer",
      "type": "event"
    },
    {
      "inputs": [
        {
          "internalType": "address",
          "name": "to",
          "type": "address"
        },
        {
          "internalType": "uint256",
          "name": "tokenId",
          "type": "uint256"
        }
      ],
      "name": "approve",
      "outputs": [],
      "stateMutability": "nonpayable",
      "type": "function"
    },
    {
      "inputs": [
        {
          "internalType": "address",
          "name": "owner",
          "type": "address"
        }
      ],
      "name": "balanceOf",
      "outputs": [
        {
          "internalType": "uint256",
          "name": "",
          "type": "uint256"
        }
      ],
      "stateMutability": "view",
      "type": "function",
      "constant": true
    },
    {
      "inputs": [
        {
          "internalType": "uint256",
          "name": "",
          "type": "uint256"
        }
      ],
      "name": "cars",
      "outputs": [
        {
          "internalType": "string",
          "name": "make",
          "type": "string"
        },
        {
          "internalType": "string",
          "name": "model",
          "type": "string"
        },
        {
          "internalType": "uint256",
          "name": "year",
          "type": "uint256"
        },
        {
          "internalType": "string",
          "name": "imageURI",
          "type": "string"
        },
        {
          "internalType": "string",
          "name": "desc",
          "type": "string"
        }
      ],
      "stateMutability": "view",
      "type": "function",
      "constant": true
    },
    {
      "inputs": [
        {
          "internalType": "uint256",
          "name": "tokenId",
          "type": "uint256"
        }
      ],
      "name": "getApproved",
      "outputs": [
        {
          "internalType": "address",
          "name": "",
          "type": "address"
        }
      ],
      "stateMutability": "view",
      "type": "function",
      "constant": true
    },
    {
      "inputs": [
        {
          "internalType": "address",
          "name": "owner",
          "type": "address"
        },
        {
          "internalType": "address",
          "name": "operator",
          "type": "address"
        }
      ],
      "name": "isApprovedForAll",
      "outputs": [
        {
          "internalType": "bool",
          "name": "",
          "type": "bool"
        }
      ],
      "stateMutability": "view",
      "type": "function",
      "constant": true
    },
    {
      "inputs": [],
      "name": "name",
      "outputs": [
        {
          "internalType": "string",
          "name": "",
          "type": "string"
        }
      ],
      "stateMutability": "view",
      "type": "function",
      "constant": true
    },
    {
      "inputs": [],
      "name": "owner",
      "outputs": [
        {
          "internalType": "address",
          "name": "",
          "type": "address"
        }
      ],
      "stateMutability": "view",
      "type": "function",
      "constant": true
    },
    {
      "inputs": [
        {
          "internalType": "uint256",
          "name": "tokenId",
          "type": "uint256"
        }
      ],
      "name": "ownerOf",
      "outputs": [
        {
          "internalType": "address",
          "name": "",
          "type": "address"
        }
      ],
      "stateMutability": "view",
      "type": "function",
      "constant": true
    },
    {
      "inputs": [
        {
          "internalType": "uint256",
          "name": "",
          "type": "uint256"
        }
      ],
      "name": "parts",
      "outputs": [
        {
          "internalType": "string",
          "name": "name",
          "type": "string"
        },
        {
          "internalType": "string",
          "name": "typePart",
          "type": "string"
        },
        {
          "internalType": "string",
          "name": "imageURI",
          "type": "string"
        },
        {
          "internalType": "string",
          "name": "rank",
          "type": "string"
        },
        {
          "internalType": "string",
          "name": "desc",
          "type": "string"
        }
      ],
      "stateMutability": "view",
      "type": "function",
      "constant": true
    },
    {
      "inputs": [],
      "name": "renounceOwnership",
      "outputs": [],
      "stateMutability": "nonpayable",
      "type": "function"
    },
    {
      "inputs": [
        {
          "internalType": "address",
          "name": "from",
          "type": "address"
        },
        {
          "internalType": "address",
          "name": "to",
          "type": "address"
        },
        {
          "internalType": "uint256",
          "name": "tokenId",
          "type": "uint256"
        }
      ],
      "name": "safeTransferFrom",
      "outputs": [],
      "stateMutability": "nonpayable",
      "type": "function"
    },
    {
      "inputs": [
        {
          "internalType": "address",
          "name": "from",
          "type": "address"
        },
        {
          "internalType": "address",
          "name": "to",
          "type": "address"
        },
        {
          "internalType": "uint256",
          "name": "tokenId",
          "type": "uint256"
        },
        {
          "internalType": "bytes",
          "name": "data",
          "type": "bytes"
        }
      ],
      "name": "safeTransferFrom",
      "outputs": [],
      "stateMutability": "nonpayable",
      "type": "function"
    },
    {
      "inputs": [
        {
          "internalType": "address",
          "name": "operator",
          "type": "address"
        },
        {
          "internalType": "bool",
          "name": "approved",
          "type": "bool"
        }
      ],
      "name": "setApprovalForAll",
      "outputs": [],
      "stateMutability": "nonpayable",
      "type": "function"
    },
    {
      "inputs": [
        {
          "internalType": "bytes4",
          "name": "interfaceId",
          "type": "bytes4"
        }
      ],
      "name": "supportsInterface",
      "outputs": [
        {
          "internalType": "bool",
          "name": "",
          "type": "bool"
        }
      ],
      "stateMutability": "view",
      "type": "function",
      "constant": true
    },
    {
      "inputs": [],
      "name": "symbol",
      "outputs": [
        {
          "internalType": "string",
          "name": "",
          "type": "string"
        }
      ],
      "stateMutability": "view",
      "type": "function",
      "constant": true
    },
    {
      "inputs": [
        {
          "internalType": "uint256",
          "name": "tokenId",
          "type": "uint256"
        }
      ],
      "name": "tokenURI",
      "outputs": [
        {
          "internalType": "string",
          "name": "",
          "type": "string"
        }
      ],
      "stateMutability": "view",
      "type": "function",
      "constant": true
    },
    {
      "inputs": [
        {
          "internalType": "address",
          "name": "from",
          "type": "address"
        },
        {
          "internalType": "address",
          "name": "to",
          "type": "address"
        },
        {
          "internalType": "uint256",
          "name": "tokenId",
          "type": "uint256"
        }
      ],
      "name": "transferFrom",
      "outputs": [],
      "stateMutability": "nonpayable",
      "type": "function"
    },
    {
      "inputs": [
        {
          "internalType": "address",
          "name": "newOwner",
          "type": "address"
        }
      ],
      "name": "transferOwnership",
      "outputs": [],
      "stateMutability": "nonpayable",
      "type": "function"
    },
    {
      "inputs": [],
      "name": "getAllTokenIds",
      "outputs": [
        {
          "internalType": "uint256[]",
          "name": "",
          "type": "uint256[]"
        }
      ],
      "stateMutability": "view",
      "type": "function",
      "constant": true
    },
    {
      "inputs": [
        {
          "internalType": "string",
          "name": "make",
          "type": "string"
        },
        {
          "internalType": "string",
          "name": "model",
          "type": "string"
        },
        {
          "internalType": "uint256",
          "name": "year",
          "type": "uint256"
        },
        {
          "internalType": "string",
          "name": "imageURI",
          "type": "string"
        },
        {
          "internalType": "string",
          "name": "description",
          "type": "string"
        },
        {
          "internalType": "string",
          "name": "tokenURI",
          "type": "string"
        }
      ],
      "name": "createCarNFT",
      "outputs": [
        {
          "internalType": "uint256",
          "name": "",
          "type": "uint256"
        }
      ],
      "stateMutability": "nonpayable",
      "type": "function"
    },
    {
      "inputs": [
        {
          "internalType": "string",
          "name": "name",
          "type": "string"
        },
        {
          "internalType": "string",
          "name": "typePart",
          "type": "string"
        },
        {
          "internalType": "string",
          "name": "imageURI",
          "type": "string"
        },
        {
          "internalType": "string",
          "name": "rank",
          "type": "string"
        },
        {
          "internalType": "string",
          "name": "description",
          "type": "string"
        },
        {
          "internalType": "string",
          "name": "tokenURI",
          "type": "string"
        }
      ],
      "name": "createPartNFT",
      "outputs": [
        {
          "internalType": "uint256",
          "name": "",
          "type": "uint256"
        }
      ],
      "stateMutability": "nonpayable",
      "type": "function"
    },
    {
      "inputs": [
        {
          "internalType": "uint256",
          "name": "carTokenId",
          "type": "uint256"
        },
        {
          "internalType": "uint256",
          "name": "partTokenId",
          "type": "uint256"
        }
      ],
      "name": "fuseCarPart",
      "outputs": [
        {
          "internalType": "uint256",
          "name": "",
          "type": "uint256"
        }
      ],
      "stateMutability": "nonpayable",
      "type": "function"
    }
  ],
  "bytecode": "0x60806040523480156200001157600080fd5b506040518060400160405280600681526020017f4361724e465400000000000000000000000000000000000000000000000000008152506040518060400160405280600381526020017f4341520000000000000000000000000000000000000000000000000000000000815250816000908051906020019062000096929190620001a6565b508060019080519060200190620000af929190620001a6565b505050620000d2620000c6620000d860201b60201c565b620000e060201b60201c565b620002bb565b600033905090565b6000600760009054906101000a900473ffffffffffffffffffffffffffffffffffffffff16905081600760006101000a81548173ffffffffffffffffffffffffffffffffffffffff021916908373ffffffffffffffffffffffffffffffffffffffff1602179055508173ffffffffffffffffffffffffffffffffffffffff168173ffffffffffffffffffffffffffffffffffffffff167f8be0079c531659141344cd1fd0a4f28419497f9722a3daafe3b4186f6b6457e060405160405180910390a35050565b828054620001b49062000256565b90600052602060002090601f016020900481019282620001d8576000855562000224565b82601f10620001f357805160ff191683800117855562000224565b8280016001018555821562000224579182015b828111156200022357825182559160200191906001019062000206565b5b50905062000233919062000237565b5090565b5b808211156200025257600081600090555060010162000238565b5090565b600060028204905060018216806200026f57607f821691505b602082108114156200028657620002856200028c565b5b50919050565b7f4e487b7100000000000000000000000000000000000000000000000000000000600052602260045260246000fd5b61446f80620002cb6000396000f3fe608060405234801561001057600080fd5b50600436106101425760003560e01c8063715018a6116100b8578063bdbed7221161007c578063bdbed72214610387578063c87b56dd146103a5578063c9eb4662146103d5578063e985e9c514610409578063f2fde38b14610439578063f7746e361461045557610142565b8063715018a6146103095780638da5cb5b1461031357806395d89b4114610331578063a22cb4651461034f578063b88d4fde1461036b57610142565b80632507b7831161010a5780632507b783146101fd57806333d1ea6b1461022d57806342842e0e1461025d5780636352211e146102795780636a9f1eb3146102a957806370a08231146102d957610142565b806301ffc9a71461014757806306fdde0314610177578063081812fc14610195578063095ea7b3146101c557806323b872dd146101e1575b600080fd5b610161600480360381019061015c91906130af565b610489565b60405161016e9190613884565b60405180910390f35b61017f6104ea565b60405161018c919061389f565b60405180910390f35b6101af60048036038101906101aa919061331b565b61057c565b6040516101bc91906137fb565b60405180910390f35b6101df60048036038101906101da9190613073565b6105c2565b005b6101fb60048036038101906101f69190612f6d565b6106da565b005b6102176004803603810190610212919061321a565b61073a565b6040516102249190613ba6565b60405180910390f35b61024760048036038101906102429190613344565b610897565b6040516102549190613ba6565b60405180910390f35b61027760048036038101906102729190612f6d565b610da7565b005b610293600480360381019061028e919061331b565b610dc7565b6040516102a091906137fb565b60405180910390f35b6102c360048036038101906102be9190613101565b610e4e565b6040516102d09190613ba6565b60405180910390f35b6102f360048036038101906102ee9190612f08565b610f95565b6040516103009190613ba6565b60405180910390f35b61031161104d565b005b61031b611061565b60405161032891906137fb565b60405180910390f35b61033961108b565b604051610346919061389f565b60405180910390f35b61036960048036038101906103649190613037565b61111d565b005b61038560048036038101906103809190612fbc565b611133565b005b61038f611195565b60405161039c9190613862565b60405180910390f35b6103bf60048036038101906103ba919061331b565b6111ed565b6040516103cc919061389f565b60405180910390f35b6103ef60048036038101906103ea919061331b565b611300565b6040516104009594939291906138c1565b60405180910390f35b610423600480360381019061041e9190612f31565b6115de565b6040516104309190613884565b60405180910390f35b610453600480360381019061044e9190612f08565b611672565b005b61046f600480360381019061046a919061331b565b6116f6565b604051610480959493929190613937565b60405180910390f35b6000634906490660e01b7bffffffffffffffffffffffffffffffffffffffffffffffffffffffff1916827bffffffffffffffffffffffffffffffffffffffffffffffffffffffff191614806104e357506104e28261194c565b5b9050919050565b6060600080546104f990613e5e565b80601f016020809104026020016040519081016040528092919081815260200182805461052590613e5e565b80156105725780601f1061054757610100808354040283529160200191610572565b820191906000526020600020905b81548152906001019060200180831161055557829003601f168201915b5050505050905090565b600061058782611a2e565b6004600083815260200190815260200160002060009054906101000a900473ffffffffffffffffffffffffffffffffffffffff169050919050565b60006105cd82610dc7565b90508073ffffffffffffffffffffffffffffffffffffffff168373ffffffffffffffffffffffffffffffffffffffff16141561063e576040517f08c379a000000000000000000000000000000000000000000000000000000000815260040161063590613b66565b60405180910390fd5b8073ffffffffffffffffffffffffffffffffffffffff1661065d611a79565b73ffffffffffffffffffffffffffffffffffffffff16148061068c575061068b81610686611a79565b6115de565b5b6106cb576040517f08c379a00000000000000000000000000000000000000000000000000000000081526004016106c290613b86565b60405180910390fd5b6106d58383611a81565b505050565b6106eb6106e5611a79565b82611b3a565b61072a576040517f08c379a0000000000000000000000000000000000000000000000000000000008152600401610721906139a6565b60405180910390fd5b610735838383611bcf565b505050565b60006107466008611ec9565b60006107526008611edf565b905061075e3382611eed565b610768818461210b565b6040518060a0016040528089815260200188815260200187815260200186815260200185815250600a600083815260200190815260200160002060008201518160000190805190602001906107be929190612cec565b5060208201518160010190805190602001906107db929190612cec565b50604082015181600201556060820151816003019080519060200190610802929190612cec565b50608082015181600401908051906020019061081f929190612cec565b5090505060098190806001815401808255809150506001900390600052602060002001600090919091909150557f6fe42f42d7e31cd220a37c97111fbfceda91a95ed77ea15b7e4d8ffd37a87927818989896040516108819493929190613c1b565b60405180910390a1809150509695505050505050565b60003373ffffffffffffffffffffffffffffffffffffffff166108b984610dc7565b73ffffffffffffffffffffffffffffffffffffffff161461090f576040517f08c379a000000000000000000000000000000000000000000000000000000000815260040161090690613aa6565b60405180910390fd5b3373ffffffffffffffffffffffffffffffffffffffff1661092f83610dc7565b73ffffffffffffffffffffffffffffffffffffffff1614610985576040517f08c379a000000000000000000000000000000000000000000000000000000000815260040161097c90613a86565b60405180910390fd5b61098f6008611ec9565b600061099b6008611edf565b90506000600a60008681526020019081526020016000206040518060a00160405290816000820180546109cd90613e5e565b80601f01602080910402602001604051908101604052809291908181526020018280546109f990613e5e565b8015610a465780601f10610a1b57610100808354040283529160200191610a46565b820191906000526020600020905b815481529060010190602001808311610a2957829003601f168201915b50505050508152602001600182018054610a5f90613e5e565b80601f0160208091040260200160405190810160405280929190818152602001828054610a8b90613e5e565b8015610ad85780601f10610aad57610100808354040283529160200191610ad8565b820191906000526020600020905b815481529060010190602001808311610abb57829003601f168201915b5050505050815260200160028201548152602001600382018054610afb90613e5e565b80601f0160208091040260200160405190810160405280929190818152602001828054610b2790613e5e565b8015610b745780601f10610b4957610100808354040283529160200191610b74565b820191906000526020600020905b815481529060010190602001808311610b5757829003601f168201915b50505050508152602001600482018054610b8d90613e5e565b80601f0160208091040260200160405190810160405280929190818152602001828054610bb990613e5e565b8015610c065780601f10610bdb57610100808354040283529160200191610c06565b820191906000526020600020905b815481529060010190602001808311610be957829003601f168201915b5050505050815250509050600081600001518260200151604051602001610c2e9291906137c1565b604051602081830303815290604052905060008260600151905060008360800151610c58886121b6565b604051602001610c69929190613792565b6040516020818303038152906040529050610c843386611eed565b610c8e858461210b565b6040518060a0016040528085600001518152602001856020015181526020018560400151815260200183815260200182815250600a60008781526020019081526020016000206000820151816000019080519060200190610cf0929190612cec565b506020820151816001019080519060200190610d0d929190612cec565b50604082015181600201556060820151816003019080519060200190610d34929190612cec565b506080820151816004019080519060200190610d51929190612cec565b50905050610d5e876122da565b7fcdc705de6a8173f225a14aefb8e4ba2fcb3f7f006a431329eb4967e1db5cbbc1858989604051610d9193929190613c6e565b60405180910390a1849550505050505092915050565b610dc283838360405180602001604052806000815250611133565b505050565b600080610dd38361232d565b9050600073ffffffffffffffffffffffffffffffffffffffff168173ffffffffffffffffffffffffffffffffffffffff161415610e45576040517f08c379a0000000000000000000000000000000000000000000000000000000008152600401610e3c90613b46565b60405180910390fd5b80915050919050565b6000610e5a6008611ec9565b6000610e666008611edf565b9050610e723382611eed565b610e7c818461210b565b6040518060a0016040528089815260200188815260200187815260200186815260200185815250600b60008381526020019081526020016000206000820151816000019080519060200190610ed2929190612cec565b506020820151816001019080519060200190610eef929190612cec565b506040820151816002019080519060200190610f0c929190612cec565b506060820151816003019080519060200190610f29929190612cec565b506080820151816004019080519060200190610f46929190612cec565b509050507f1bb791fc3f2bc225fbf4d29452060230db7a98b287bad662bdf57a0925d53b4e81898988604051610f7f9493929190613bc1565b60405180910390a1809150509695505050505050565b60008073ffffffffffffffffffffffffffffffffffffffff168273ffffffffffffffffffffffffffffffffffffffff161415611006576040517f08c379a0000000000000000000000000000000000000000000000000000000008152600401610ffd90613ac6565b60405180910390fd5b600360008373ffffffffffffffffffffffffffffffffffffffff1673ffffffffffffffffffffffffffffffffffffffff168152602001908152602001600020549050919050565b61105561236a565b61105f60006123e8565b565b6000600760009054906101000a900473ffffffffffffffffffffffffffffffffffffffff16905090565b60606001805461109a90613e5e565b80601f01602080910402602001604051908101604052809291908181526020018280546110c690613e5e565b80156111135780601f106110e857610100808354040283529160200191611113565b820191906000526020600020905b8154815290600101906020018083116110f657829003601f168201915b5050505050905090565b61112f611128611a79565b83836124ae565b5050565b61114461113e611a79565b83611b3a565b611183576040517f08c379a000000000000000000000000000000000000000000000000000000000815260040161117a906139a6565b60405180910390fd5b61118f8484848461261b565b50505050565b606060098054806020026020016040519081016040528092919081815260200182805480156111e357602002820191906000526020600020905b8154815260200190600101908083116111cf575b5050505050905090565b60606111f882611a2e565b600060066000848152602001908152602001600020805461121890613e5e565b80601f016020809104026020016040519081016040528092919081815260200182805461124490613e5e565b80156112915780601f1061126657610100808354040283529160200191611291565b820191906000526020600020905b81548152906001019060200180831161127457829003601f168201915b5050505050905060006112a2612677565b90506000815114156112b85781925050506112fb565b6000825111156112ed5780826040516020016112d592919061376e565b604051602081830303815290604052925050506112fb565b6112f68461268e565b925050505b919050565b600b60205280600052604060002060009150905080600001805461132390613e5e565b80601f016020809104026020016040519081016040528092919081815260200182805461134f90613e5e565b801561139c5780601f106113715761010080835404028352916020019161139c565b820191906000526020600020905b81548152906001019060200180831161137f57829003601f168201915b5050505050908060010180546113b190613e5e565b80601f01602080910402602001604051908101604052809291908181526020018280546113dd90613e5e565b801561142a5780601f106113ff5761010080835404028352916020019161142a565b820191906000526020600020905b81548152906001019060200180831161140d57829003601f168201915b50505050509080600201805461143f90613e5e565b80601f016020809104026020016040519081016040528092919081815260200182805461146b90613e5e565b80156114b85780601f1061148d576101008083540402835291602001916114b8565b820191906000526020600020905b81548152906001019060200180831161149b57829003601f168201915b5050505050908060030180546114cd90613e5e565b80601f01602080910402602001604051908101604052809291908181526020018280546114f990613e5e565b80156115465780601f1061151b57610100808354040283529160200191611546565b820191906000526020600020905b81548152906001019060200180831161152957829003601f168201915b50505050509080600401805461155b90613e5e565b80601f016020809104026020016040519081016040528092919081815260200182805461158790613e5e565b80156115d45780601f106115a9576101008083540402835291602001916115d4565b820191906000526020600020905b8154815290600101906020018083116115b757829003601f168201915b5050505050905085565b6000600560008473ffffffffffffffffffffffffffffffffffffffff1673ffffffffffffffffffffffffffffffffffffffff16815260200190815260200160002060008373ffffffffffffffffffffffffffffffffffffffff1673ffffffffffffffffffffffffffffffffffffffff16815260200190815260200160002060009054906101000a900460ff16905092915050565b61167a61236a565b600073ffffffffffffffffffffffffffffffffffffffff168173ffffffffffffffffffffffffffffffffffffffff1614156116ea576040517f08c379a00000000000000000000000000000000000000000000000000000000081526004016116e1906139e6565b60405180910390fd5b6116f3816123e8565b50565b600a60205280600052604060002060009150905080600001805461171990613e5e565b80601f016020809104026020016040519081016040528092919081815260200182805461174590613e5e565b80156117925780601f1061176757610100808354040283529160200191611792565b820191906000526020600020905b81548152906001019060200180831161177557829003601f168201915b5050505050908060010180546117a790613e5e565b80601f01602080910402602001604051908101604052809291908181526020018280546117d390613e5e565b80156118205780601f106117f557610100808354040283529160200191611820565b820191906000526020600020905b81548152906001019060200180831161180357829003601f168201915b50505050509080600201549080600301805461183b90613e5e565b80601f016020809104026020016040519081016040528092919081815260200182805461186790613e5e565b80156118b45780601f10611889576101008083540402835291602001916118b4565b820191906000526020600020905b81548152906001019060200180831161189757829003601f168201915b5050505050908060040180546118c990613e5e565b80601f01602080910402602001604051908101604052809291908181526020018280546118f590613e5e565b80156119425780601f1061191757610100808354040283529160200191611942565b820191906000526020600020905b81548152906001019060200180831161192557829003601f168201915b5050505050905085565b60007f80ac58cd000000000000000000000000000000000000000000000000000000007bffffffffffffffffffffffffffffffffffffffffffffffffffffffff1916827bffffffffffffffffffffffffffffffffffffffffffffffffffffffff19161480611a1757507f5b5e139f000000000000000000000000000000000000000000000000000000007bffffffffffffffffffffffffffffffffffffffffffffffffffffffff1916827bffffffffffffffffffffffffffffffffffffffffffffffffffffffff1916145b80611a275750611a26826126f6565b5b9050919050565b611a3781612760565b611a76576040517f08c379a0000000000000000000000000000000000000000000000000000000008152600401611a6d90613b46565b60405180910390fd5b50565b600033905090565b816004600083815260200190815260200160002060006101000a81548173ffffffffffffffffffffffffffffffffffffffff021916908373ffffffffffffffffffffffffffffffffffffffff160217905550808273ffffffffffffffffffffffffffffffffffffffff16611af483610dc7565b73ffffffffffffffffffffffffffffffffffffffff167f8c5be1e5ebec7d5bd14f71427d1e84f3dd0314c0f7b2291e5b200ac8c7c3b92560405160405180910390a45050565b600080611b4683610dc7565b90508073ffffffffffffffffffffffffffffffffffffffff168473ffffffffffffffffffffffffffffffffffffffff161480611b885750611b8781856115de565b5b80611bc657508373ffffffffffffffffffffffffffffffffffffffff16611bae8461057c565b73ffffffffffffffffffffffffffffffffffffffff16145b91505092915050565b8273ffffffffffffffffffffffffffffffffffffffff16611bef82610dc7565b73ffffffffffffffffffffffffffffffffffffffff1614611c45576040517f08c379a0000000000000000000000000000000000000000000000000000000008152600401611c3c90613a06565b60405180910390fd5b600073ffffffffffffffffffffffffffffffffffffffff168273ffffffffffffffffffffffffffffffffffffffff161415611cb5576040517f08c379a0000000000000000000000000000000000000000000000000000000008152600401611cac90613a46565b60405180910390fd5b611cc283838360016127a1565b8273ffffffffffffffffffffffffffffffffffffffff16611ce282610dc7565b73ffffffffffffffffffffffffffffffffffffffff1614611d38576040517f08c379a0000000000000000000000000000000000000000000000000000000008152600401611d2f90613a06565b60405180910390fd5b6004600082815260200190815260200160002060006101000a81549073ffffffffffffffffffffffffffffffffffffffff02191690556001600360008573ffffffffffffffffffffffffffffffffffffffff1673ffffffffffffffffffffffffffffffffffffffff168152602001908152602001600020600082825403925050819055506001600360008473ffffffffffffffffffffffffffffffffffffffff1673ffffffffffffffffffffffffffffffffffffffff16815260200190815260200160002060008282540192505081905550816002600083815260200190815260200160002060006101000a81548173ffffffffffffffffffffffffffffffffffffffff021916908373ffffffffffffffffffffffffffffffffffffffff160217905550808273ffffffffffffffffffffffffffffffffffffffff168473ffffffffffffffffffffffffffffffffffffffff167fddf252ad1be2c89b69c2b068fc378daa952ba7f163c4a11628f55a4df523b3ef60405160405180910390a4611ec483838360016127a7565b505050565b6001816000016000828254019250508190555050565b600081600001549050919050565b600073ffffffffffffffffffffffffffffffffffffffff168273ffffffffffffffffffffffffffffffffffffffff161415611f5d576040517f08c379a0000000000000000000000000000000000000000000000000000000008152600401611f5490613b06565b60405180910390fd5b611f6681612760565b15611fa6576040517f08c379a0000000000000000000000000000000000000000000000000000000008152600401611f9d90613a26565b60405180910390fd5b611fb46000838360016127a1565b611fbd81612760565b15611ffd576040517f08c379a0000000000000000000000000000000000000000000000000000000008152600401611ff490613a26565b60405180910390fd5b6001600360008473ffffffffffffffffffffffffffffffffffffffff1673ffffffffffffffffffffffffffffffffffffffff16815260200190815260200160002060008282540192505081905550816002600083815260200190815260200160002060006101000a81548173ffffffffffffffffffffffffffffffffffffffff021916908373ffffffffffffffffffffffffffffffffffffffff160217905550808273ffffffffffffffffffffffffffffffffffffffff16600073ffffffffffffffffffffffffffffffffffffffff167fddf252ad1be2c89b69c2b068fc378daa952ba7f163c4a11628f55a4df523b3ef60405160405180910390a46121076000838360016127a7565b5050565b61211482612760565b612153576040517f08c379a000000000000000000000000000000000000000000000000000000000815260040161214a90613ae6565b60405180910390fd5b8060066000848152602001908152602001600020908051906020019061217a929190612cec565b507ff8e1a15aba9398e019f0b49df1a4fde98ee17ae345cb5f6b5e2c27f5033e8ce7826040516121aa9190613ba6565b60405180910390a15050565b6060600060016121c5846127ad565b01905060008167ffffffffffffffff81111561220a577f4e487b7100000000000000000000000000000000000000000000000000000000600052604160045260246000fd5b6040519080825280601f01601f19166020018201604052801561223c5781602001600182028036833780820191505090505b509050600082602001820190505b6001156122cf578080600190039150507f3031323334353637383961626364656600000000000000000000000000000000600a86061a8153600a85816122b9577f4e487b7100000000000000000000000000000000000000000000000000000000600052601260045260246000fd5b04945060008514156122ca576122cf565b61224a565b819350505050919050565b6122e3816129e4565b600060066000838152602001908152602001600020805461230390613e5e565b90501461232a576006600082815260200190815260200160002060006123299190612d72565b5b50565b60006002600083815260200190815260200160002060009054906101000a900473ffffffffffffffffffffffffffffffffffffffff169050919050565b612372611a79565b73ffffffffffffffffffffffffffffffffffffffff16612390611061565b73ffffffffffffffffffffffffffffffffffffffff16146123e6576040517f08c379a00000000000000000000000000000000000000000000000000000000081526004016123dd90613b26565b60405180910390fd5b565b6000600760009054906101000a900473ffffffffffffffffffffffffffffffffffffffff16905081600760006101000a81548173ffffffffffffffffffffffffffffffffffffffff021916908373ffffffffffffffffffffffffffffffffffffffff1602179055508173ffffffffffffffffffffffffffffffffffffffff168173ffffffffffffffffffffffffffffffffffffffff167f8be0079c531659141344cd1fd0a4f28419497f9722a3daafe3b4186f6b6457e060405160405180910390a35050565b8173ffffffffffffffffffffffffffffffffffffffff168373ffffffffffffffffffffffffffffffffffffffff16141561251d576040517f08c379a000000000000000000000000000000000000000000000000000000000815260040161251490613a66565b60405180910390fd5b80600560008573ffffffffffffffffffffffffffffffffffffffff1673ffffffffffffffffffffffffffffffffffffffff16815260200190815260200160002060008473ffffffffffffffffffffffffffffffffffffffff1673ffffffffffffffffffffffffffffffffffffffff16815260200190815260200160002060006101000a81548160ff0219169083151502179055508173ffffffffffffffffffffffffffffffffffffffff168373ffffffffffffffffffffffffffffffffffffffff167f17307eab39ab6107e8899845ad3d59bd9653f200f220920489ca2b5937696c318360405161260e9190613884565b60405180910390a3505050565b612626848484611bcf565b61263284848484612b32565b612671576040517f08c379a0000000000000000000000000000000000000000000000000000000008152600401612668906139c6565b60405180910390fd5b50505050565b606060405180602001604052806000815250905090565b606061269982611a2e565b60006126a3612677565b905060008151116126c357604051806020016040528060008152506126ee565b806126cd846121b6565b6040516020016126de92919061376e565b6040516020818303038152906040525b915050919050565b60007f01ffc9a7000000000000000000000000000000000000000000000000000000007bffffffffffffffffffffffffffffffffffffffffffffffffffffffff1916827bffffffffffffffffffffffffffffffffffffffffffffffffffffffff1916149050919050565b60008073ffffffffffffffffffffffffffffffffffffffff166127828361232d565b73ffffffffffffffffffffffffffffffffffffffff1614159050919050565b50505050565b50505050565b600080600090507a184f03e93ff9f4daa797ed6e38ed64bf6a1f0100000000000000008310612831577a184f03e93ff9f4daa797ed6e38ed64bf6a1f0100000000000000008381612827577f4e487b7100000000000000000000000000000000000000000000000000000000600052601260045260246000fd5b0492506040810190505b6d04ee2d6d415b85acef81000000008310612894576d04ee2d6d415b85acef8100000000838161288a577f4e487b7100000000000000000000000000000000000000000000000000000000600052601260045260246000fd5b0492506020810190505b662386f26fc1000083106128e957662386f26fc1000083816128df577f4e487b7100000000000000000000000000000000000000000000000000000000600052601260045260246000fd5b0492506010810190505b6305f5e1008310612938576305f5e100838161292e577f4e487b7100000000000000000000000000000000000000000000000000000000600052601260045260246000fd5b0492506008810190505b6127108310612983576127108381612979577f4e487b7100000000000000000000000000000000000000000000000000000000600052601260045260246000fd5b0492506004810190505b606483106129cc57606483816129c2577f4e487b7100000000000000000000000000000000000000000000000000000000600052601260045260246000fd5b0492506002810190505b600a83106129db576001810190505b80915050919050565b60006129ef82610dc7565b90506129ff8160008460016127a1565b612a0882610dc7565b90506004600083815260200190815260200160002060006101000a81549073ffffffffffffffffffffffffffffffffffffffff02191690556001600360008373ffffffffffffffffffffffffffffffffffffffff1673ffffffffffffffffffffffffffffffffffffffff168152602001908152602001600020600082825403925050819055506002600083815260200190815260200160002060006101000a81549073ffffffffffffffffffffffffffffffffffffffff021916905581600073ffffffffffffffffffffffffffffffffffffffff168273ffffffffffffffffffffffffffffffffffffffff167fddf252ad1be2c89b69c2b068fc378daa952ba7f163c4a11628f55a4df523b3ef60405160405180910390a4612b2e8160008460016127a7565b5050565b6000612b538473ffffffffffffffffffffffffffffffffffffffff16612cc9565b15612cbc578373ffffffffffffffffffffffffffffffffffffffff1663150b7a02612b7c611a79565b8786866040518563ffffffff1660e01b8152600401612b9e9493929190613816565b602060405180830381600087803b158015612bb857600080fd5b505af1925050508015612be957506040513d601f19601f82011682018060405250810190612be691906130d8565b60015b612c6c573d8060008114612c19576040519150601f19603f3d011682016040523d82523d6000602084013e612c1e565b606091505b50600081511415612c64576040517f08c379a0000000000000000000000000000000000000000000000000000000008152600401612c5b906139c6565b60405180910390fd5b805181602001fd5b63150b7a0260e01b7bffffffffffffffffffffffffffffffffffffffffffffffffffffffff1916817bffffffffffffffffffffffffffffffffffffffffffffffffffffffff191614915050612cc1565b600190505b949350505050565b6000808273ffffffffffffffffffffffffffffffffffffffff163b119050919050565b828054612cf890613e5e565b90600052602060002090601f016020900481019282612d1a5760008555612d61565b82601f10612d3357805160ff1916838001178555612d61565b82800160010185558215612d61579182015b82811115612d60578251825591602001919060010190612d45565b5b509050612d6e9190612db2565b5090565b508054612d7e90613e5e565b6000825580601f10612d905750612daf565b601f016020900490600052602060002090810190612dae9190612db2565b5b50565b5b80821115612dcb576000816000905550600101612db3565b5090565b6000612de2612ddd84613cca565b613ca5565b905082815260208101848484011115612dfa57600080fd5b612e05848285613e1c565b509392505050565b6000612e20612e1b84613cfb565b613ca5565b905082815260208101848484011115612e3857600080fd5b612e43848285613e1c565b509392505050565b600081359050612e5a816143dd565b92915050565b600081359050612e6f816143f4565b92915050565b600081359050612e848161440b565b92915050565b600081519050612e998161440b565b92915050565b600082601f830112612eb057600080fd5b8135612ec0848260208601612dcf565b91505092915050565b600082601f830112612eda57600080fd5b8135612eea848260208601612e0d565b91505092915050565b600081359050612f0281614422565b92915050565b600060208284031215612f1a57600080fd5b6000612f2884828501612e4b565b91505092915050565b60008060408385031215612f4457600080fd5b6000612f5285828601612e4b565b9250506020612f6385828601612e4b565b9150509250929050565b600080600060608486031215612f8257600080fd5b6000612f9086828701612e4b565b9350506020612fa186828701612e4b565b9250506040612fb286828701612ef3565b9150509250925092565b60008060008060808587031215612fd257600080fd5b6000612fe087828801612e4b565b9450506020612ff187828801612e4b565b935050604061300287828801612ef3565b925050606085013567ffffffffffffffff81111561301f57600080fd5b61302b87828801612e9f565b91505092959194509250565b6000806040838503121561304a57600080fd5b600061305885828601612e4b565b925050602061306985828601612e60565b9150509250929050565b6000806040838503121561308657600080fd5b600061309485828601612e4b565b92505060206130a585828601612ef3565b9150509250929050565b6000602082840312156130c157600080fd5b60006130cf84828501612e75565b91505092915050565b6000602082840312156130ea57600080fd5b60006130f884828501612e8a565b91505092915050565b60008060008060008060c0878903121561311a57600080fd5b600087013567ffffffffffffffff81111561313457600080fd5b61314089828a01612ec9565b965050602087013567ffffffffffffffff81111561315d57600080fd5b61316989828a01612ec9565b955050604087013567ffffffffffffffff81111561318657600080fd5b61319289828a01612ec9565b945050606087013567ffffffffffffffff8111156131af57600080fd5b6131bb89828a01612ec9565b935050608087013567ffffffffffffffff8111156131d857600080fd5b6131e489828a01612ec9565b92505060a087013567ffffffffffffffff81111561320157600080fd5b61320d89828a01612ec9565b9150509295509295509295565b60008060008060008060c0878903121561323357600080fd5b600087013567ffffffffffffffff81111561324d57600080fd5b61325989828a01612ec9565b965050602087013567ffffffffffffffff81111561327657600080fd5b61328289828a01612ec9565b955050604061329389828a01612ef3565b945050606087013567ffffffffffffffff8111156132b057600080fd5b6132bc89828a01612ec9565b935050608087013567ffffffffffffffff8111156132d957600080fd5b6132e589828a01612ec9565b92505060a087013567ffffffffffffffff81111561330257600080fd5b61330e89828a01612ec9565b9150509295509295509295565b60006020828403121561332d57600080fd5b600061333b84828501612ef3565b91505092915050565b6000806040838503121561335757600080fd5b600061336585828601612ef3565b925050602061337685828601612ef3565b9150509250929050565b600061338c8383613750565b60208301905092915050565b6133a181613da8565b82525050565b60006133b282613d3c565b6133bc8185613d6a565b93506133c783613d2c565b8060005b838110156133f85781516133df8882613380565b97506133ea83613d5d565b9250506001810190506133cb565b5085935050505092915050565b61340e81613dba565b82525050565b600061341f82613d47565b6134298185613d7b565b9350613439818560208601613e2b565b61344281613f1f565b840191505092915050565b600061345882613d52565b6134628185613d8c565b9350613472818560208601613e2b565b61347b81613f1f565b840191505092915050565b600061349182613d52565b61349b8185613d9d565b93506134ab818560208601613e2b565b80840191505092915050565b60006134c4602d83613d8c565b91506134cf82613f30565b604082019050919050565b60006134e7603283613d8c565b91506134f282613f7f565b604082019050919050565b600061350a602683613d8c565b915061351582613fce565b604082019050919050565b600061352d602583613d8c565b91506135388261401d565b604082019050919050565b6000613550601c83613d8c565b915061355b8261406c565b602082019050919050565b6000613573602483613d8c565b915061357e82614095565b604082019050919050565b6000613596601983613d8c565b91506135a1826140e4565b602082019050919050565b60006135b9602283613d8c565b91506135c48261410d565b604082019050919050565b60006135dc602d83613d8c565b91506135e78261415c565b604082019050919050565b60006135ff602983613d8c565b915061360a826141ab565b604082019050919050565b6000613622602e83613d8c565b915061362d826141fa565b604082019050919050565b6000613645602083613d8c565b915061365082614249565b602082019050919050565b6000613668600683613d9d565b915061367382614272565b600682019050919050565b600061368b602083613d8c565b91506136968261429b565b602082019050919050565b60006136ae600483613d9d565b91506136b9826142c4565b600482019050919050565b60006136d1601883613d8c565b91506136dc826142ed565b602082019050919050565b60006136f4602183613d8c565b91506136ff82614316565b604082019050919050565b6000613717603d83613d8c565b915061372282614365565b604082019050919050565b600061373a600183613d9d565b9150613745826143b4565b600182019050919050565b61375981613e12565b82525050565b61376881613e12565b82525050565b600061377a8285613486565b91506137868284613486565b91508190509392505050565b600061379e8285613486565b91506137a9826136a1565b91506137b58284613486565b91508190509392505050565b60006137cd8285613486565b91506137d88261372d565b91506137e48284613486565b91506137ef8261365b565b91508190509392505050565b60006020820190506138106000830184613398565b92915050565b600060808201905061382b6000830187613398565b6138386020830186613398565b613845604083018561375f565b81810360608301526138578184613414565b905095945050505050565b6000602082019050818103600083015261387c81846133a7565b905092915050565b60006020820190506138996000830184613405565b92915050565b600060208201905081810360008301526138b9818461344d565b905092915050565b600060a08201905081810360008301526138db818861344d565b905081810360208301526138ef818761344d565b90508181036040830152613903818661344d565b90508181036060830152613917818561344d565b9050818103608083015261392b818461344d565b90509695505050505050565b600060a0820190508181036000830152613951818861344d565b90508181036020830152613965818761344d565b9050613974604083018661375f565b8181036060830152613986818561344d565b9050818103608083015261399a818461344d565b90509695505050505050565b600060208201905081810360008301526139bf816134b7565b9050919050565b600060208201905081810360008301526139df816134da565b9050919050565b600060208201905081810360008301526139ff816134fd565b9050919050565b60006020820190508181036000830152613a1f81613520565b9050919050565b60006020820190508181036000830152613a3f81613543565b9050919050565b60006020820190508181036000830152613a5f81613566565b9050919050565b60006020820190508181036000830152613a7f81613589565b9050919050565b60006020820190508181036000830152613a9f816135ac565b9050919050565b60006020820190508181036000830152613abf816135cf565b9050919050565b60006020820190508181036000830152613adf816135f2565b9050919050565b60006020820190508181036000830152613aff81613615565b9050919050565b60006020820190508181036000830152613b1f81613638565b9050919050565b60006020820190508181036000830152613b3f8161367e565b9050919050565b60006020820190508181036000830152613b5f816136c4565b9050919050565b60006020820190508181036000830152613b7f816136e7565b9050919050565b60006020820190508181036000830152613b9f8161370a565b9050919050565b6000602082019050613bbb600083018461375f565b92915050565b6000608082019050613bd6600083018761375f565b8181036020830152613be8818661344d565b90508181036040830152613bfc818561344d565b90508181036060830152613c10818461344d565b905095945050505050565b6000608082019050613c30600083018761375f565b8181036020830152613c42818661344d565b90508181036040830152613c56818561344d565b9050613c65606083018461375f565b95945050505050565b6000606082019050613c83600083018661375f565b613c90602083018561375f565b613c9d604083018461375f565b949350505050565b6000613caf613cc0565b9050613cbb8282613e90565b919050565b6000604051905090565b600067ffffffffffffffff821115613ce557613ce4613ef0565b5b613cee82613f1f565b9050602081019050919050565b600067ffffffffffffffff821115613d1657613d15613ef0565b5b613d1f82613f1f565b9050602081019050919050565b6000819050602082019050919050565b600081519050919050565b600081519050919050565b600081519050919050565b6000602082019050919050565b600082825260208201905092915050565b600082825260208201905092915050565b600082825260208201905092915050565b600081905092915050565b6000613db382613df2565b9050919050565b60008115159050919050565b60007fffffffff0000000000000000000000000000000000000000000000000000000082169050919050565b600073ffffffffffffffffffffffffffffffffffffffff82169050919050565b6000819050919050565b82818337600083830152505050565b60005b83811015613e49578082015181840152602081019050613e2e565b83811115613e58576000848401525b50505050565b60006002820490506001821680613e7657607f821691505b60208210811415613e8a57613e89613ec1565b5b50919050565b613e9982613f1f565b810181811067ffffffffffffffff82111715613eb857613eb7613ef0565b5b80604052505050565b7f4e487b7100000000000000000000000000000000000000000000000000000000600052602260045260246000fd5b7f4e487b7100000000000000000000000000000000000000000000000000000000600052604160045260246000fd5b6000601f19601f8301169050919050565b7f4552433732313a2063616c6c6572206973206e6f7420746f6b656e206f776e6560008201527f72206f7220617070726f76656400000000000000000000000000000000000000602082015250565b7f4552433732313a207472616e7366657220746f206e6f6e20455243373231526560008201527f63656976657220696d706c656d656e7465720000000000000000000000000000602082015250565b7f4f776e61626c653a206e6577206f776e657220697320746865207a65726f206160008201527f6464726573730000000000000000000000000000000000000000000000000000602082015250565b7f4552433732313a207472616e736665722066726f6d20696e636f72726563742060008201527f6f776e6572000000000000000000000000000000000000000000000000000000602082015250565b7f4552433732313a20746f6b656e20616c7265616479206d696e74656400000000600082015250565b7f4552433732313a207472616e7366657220746f20746865207a65726f2061646460008201527f7265737300000000000000000000000000000000000000000000000000000000602082015250565b7f4552433732313a20617070726f766520746f2063616c6c657200000000000000600082015250565b7f596f75206d757374206f776e207468652070617274204e465420746f2066757360008201527f652e000000000000000000000000000000000000000000000000000000000000602082015250565b7f596f75206d757374206f776e2074686520636172204e465420746f206675736560008201527f2077697468206120706172742e00000000000000000000000000000000000000602082015250565b7f4552433732313a2061646472657373207a65726f206973206e6f74206120766160008201527f6c6964206f776e65720000000000000000000000000000000000000000000000602082015250565b7f45524337323155524953746f726167653a2055524920736574206f66206e6f6e60008201527f6578697374656e7420746f6b656e000000000000000000000000000000000000602082015250565b7f4552433732313a206d696e7420746f20746865207a65726f2061646472657373600082015250565b7f5f66757365640000000000000000000000000000000000000000000000000000600082015250565b7f4f776e61626c653a2063616c6c6572206973206e6f7420746865206f776e6572600082015250565b7f7465737400000000000000000000000000000000000000000000000000000000600082015250565b7f4552433732313a20696e76616c696420746f6b656e2049440000000000000000600082015250565b7f4552433732313a20617070726f76616c20746f2063757272656e74206f776e6560008201527f7200000000000000000000000000000000000000000000000000000000000000602082015250565b7f4552433732313a20617070726f76652063616c6c6572206973206e6f7420746f60008201527f6b656e206f776e6572206f7220617070726f76656420666f7220616c6c000000602082015250565b7f5f00000000000000000000000000000000000000000000000000000000000000600082015250565b6143e681613da8565b81146143f157600080fd5b50565b6143fd81613dba565b811461440857600080fd5b50565b61441481613dc6565b811461441f57600080fd5b50565b61442b81613e12565b811461443657600080fd5b5056fea2646970667358221220add76e108950311b2a82cffc073e66df6f551878cfdfe97c09cde992a5ecd41d64736f6c63430008010033",
  "immutableReferences": {},
  "source": "// SPDX-License-Identifier: MIT\r\npragma solidity ^0.8.1;\r\n\r\nimport \"@openzeppelin/contracts/token/ERC721/ERC721.sol\";\r\nimport \"@openzeppelin/contracts/token/ERC721/extensions/ERC721URIStorage.sol\";\r\nimport \"@openzeppelin/contracts/access/Ownable.sol\";\r\nimport \"@openzeppelin/contracts/utils/Counters.sol\";\r\n\r\ncontract CarNFT is ERC721URIStorage, Ownable {\r\n    using Counters for Counters.Counter;\r\n    Counters.Counter private _tokenIds;\r\n    uint256[] private _allTokenIds;\r\n\r\n    struct Car {\r\n        string make;\r\n        string model;\r\n        uint256 year;\r\n        string imageURI; \r\n        string desc; \r\n    }\r\n\r\n\r\n    // Piece de voiture \r\n    struct Part {\r\n        string name;\r\n        string typePart;\r\n        string imageURI;\r\n        string rank; \r\n        string desc; \r\n    }\r\n\r\n    mapping(uint256 => Car) public cars;\r\n    mapping(uint256 => Part) public parts;\r\n\r\n    event CarNFTCreated(uint256 tokenId, string make, string model, uint256 year);\r\n    event PartNFTCreated(uint256 tokenId, string name, string typePart, string rank);  \r\n    event NFTFused(uint256 newTokenId, uint256 carTokenId, uint256 partTokenId);\r\n\r\n    constructor() ERC721(\"CarNFT\", \"CAR\") {}\r\n\t\r\n\tfunction getAllTokenIds() public view returns (uint256[] memory) {\r\n        return _allTokenIds;\r\n    }\r\n\r\n    function createCarNFT(\r\n        string memory make,\r\n        string memory model,\r\n        uint256 year,\r\n        string memory imageURI,\r\n        string memory description,\r\n        string memory tokenURI\r\n    ) public returns (uint256) {\r\n        _tokenIds.increment();\r\n        uint256 newItemId = _tokenIds.current();\r\n        _mint(msg.sender, newItemId);\r\n        _setTokenURI(newItemId, tokenURI);\r\n        cars[newItemId] = Car(make, model, year, imageURI, description);\r\n        _allTokenIds.push(newItemId);\r\n\r\n        emit CarNFTCreated(newItemId, make, model, year);\r\n        return newItemId;\r\n    }\r\n\r\n    function createPartNFT(\r\n        string memory name,\r\n        string memory typePart,\r\n        string memory imageURI,\r\n        string memory rank,\r\n        string memory description,\r\n        string memory tokenURI\r\n    ) public returns (uint256) {\r\n        _tokenIds.increment();\r\n\r\n        uint256 newItemId = _tokenIds.current();\r\n        _mint(msg.sender, newItemId);\r\n        _setTokenURI(newItemId, tokenURI);\r\n\r\n        parts[newItemId] = Part(name, typePart, imageURI, rank, description);\r\n\r\n        emit PartNFTCreated(newItemId, name, typePart, rank);\r\n\r\n        return newItemId;\r\n    }\r\n\r\n    // Fonction pour fusionner un NFT de voiture avec un NFT de pice\r\n    function fuseCarPart(uint256 carTokenId, uint256 partTokenId) public returns (uint256) {\r\n        require(ownerOf(carTokenId) == msg.sender, \"You must own the car NFT to fuse with a part.\");\r\n        require(ownerOf(partTokenId) == msg.sender, \"You must own the part NFT to fuse.\");\r\n\r\n        _tokenIds.increment();\r\n        uint256 newTokenId = _tokenIds.current();\r\n\r\n        Car memory car = cars[carTokenId];\r\n\r\n        string memory newTokenURI = string(abi.encodePacked(car.make, \"_\", car.model, \"_fused\"));\r\n        string memory newImageURI = car.imageURI; \r\n        string memory newDescription = string(abi.encodePacked(car.desc, \"test\", Strings.toString(partTokenId)));\r\n\r\n        _mint(msg.sender, newTokenId);\r\n        _setTokenURI(newTokenId, newTokenURI);\r\n\r\n        cars[newTokenId] = Car(car.make, car.model, car.year, newImageURI, newDescription);\r\n\r\n        // Brler les NFTs originaux\r\n        // _burn(carTokenId);\r\n        _burn(partTokenId);\r\n\r\n        emit NFTFused(newTokenId, carTokenId, partTokenId);\r\n\r\n        return newTokenId;\r\n    }\r\n}\r\n",
  "sourcePath": "C:\\xampp\\htdocs\\crypto\\contracts\\contracts\\CarNFT.sol",
  "compiler": {
    "name": "solc",
    "version": "0.8.1+commit.df193b15.Emscripten.clang"
  },
  "schemaVersion": "3.4.16",
  "updatedAt": "2024-01-11T17:04:53.891Z",
  "networkType": "ethereum",
  "devdoc": {
    "kind": "dev",
    "methods": {
      "approve(address,uint256)": {
        "details": "See {IERC721-approve}."
      },
      "balanceOf(address)": {
        "details": "See {IERC721-balanceOf}."
      },
      "getApproved(uint256)": {
        "details": "See {IERC721-getApproved}."
      },
      "isApprovedForAll(address,address)": {
        "details": "See {IERC721-isApprovedForAll}."
      },
      "name()": {
        "details": "See {IERC721Metadata-name}."
      },
      "owner()": {
        "details": "Returns the address of the current owner."
      },
      "ownerOf(uint256)": {
        "details": "See {IERC721-ownerOf}."
      },
      "renounceOwnership()": {
        "details": "Leaves the contract without owner. It will not be possible to call `onlyOwner` functions. Can only be called by the current owner. NOTE: Renouncing ownership will leave the contract without an owner, thereby disabling any functionality that is only available to the owner."
      },
      "safeTransferFrom(address,address,uint256)": {
        "details": "See {IERC721-safeTransferFrom}."
      },
      "safeTransferFrom(address,address,uint256,bytes)": {
        "details": "See {IERC721-safeTransferFrom}."
      },
      "setApprovalForAll(address,bool)": {
        "details": "See {IERC721-setApprovalForAll}."
      },
      "supportsInterface(bytes4)": {
        "details": "See {IERC165-supportsInterface}"
      },
      "symbol()": {
        "details": "See {IERC721Metadata-symbol}."
      },
      "tokenURI(uint256)": {
        "details": "See {IERC721Metadata-tokenURI}."
      },
      "transferFrom(address,address,uint256)": {
        "details": "See {IERC721-transferFrom}."
      },
      "transferOwnership(address)": {
        "details": "Transfers ownership of the contract to a new account (`newOwner`). Can only be called by the current owner."
      }
    },
    "version": 1
  },
  "userdoc": {
    "kind": "user",
    "methods": {},
    "version": 1
  }
}