{
  "contractName": "Lock",
  "abi": [
    {
      "inputs": [
        {
          "internalType": "uint256",
          "name": "_unlockTime",
          "type": "uint256"
        }
      ],
      "stateMutability": "payable",
      "type": "constructor"
    },
    {
      "anonymous": false,
      "inputs": [
        {
          "indexed": false,
          "internalType": "uint256",
          "name": "amount",
          "type": "uint256"
        },
        {
          "indexed": false,
          "internalType": "uint256",
          "name": "when",
          "type": "uint256"
        }
      ],
      "name": "Withdrawal",
      "type": "event"
    },
    {
      "inputs": [],
      "name": "owner",
      "outputs": [
        {
          "internalType": "address payable",
          "name": "",
          "type": "address"
        }
      ],
      "stateMutability": "view",
      "type": "function"
    },
    {
      "inputs": [],
      "name": "unlockTime",
      "outputs": [
        {
          "internalType": "uint256",
          "name": "",
          "type": "uint256"
        }
      ],
      "stateMutability": "view",
      "type": "function"
    },
    {
      "inputs": [],
      "name": "withdraw",
      "outputs": [],
      "stateMutability": "nonpayable",
      "type": "function"
    }
  ],
  "bytecode": "0x60806040526040516105cf3803806105cf833981810160405281019061002591906100ca565b804210610067576040517f08c379a000000000000000000000000000000000000000000000000000000000815260040161005e90610116565b60405180910390fd5b8060008190555033600160006101000a81548173ffffffffffffffffffffffffffffffffffffffff021916908373ffffffffffffffffffffffffffffffffffffffff160217905550506101b7565b6000815190506100c4816101a0565b92915050565b6000602082840312156100dc57600080fd5b60006100ea848285016100b5565b91505092915050565b6000610100602383610136565b915061010b82610151565b604082019050919050565b6000602082019050818103600083015261012f816100f3565b9050919050565b600082825260208201905092915050565b6000819050919050565b7f556e6c6f636b2074696d652073686f756c6420626520696e207468652066757460008201527f7572650000000000000000000000000000000000000000000000000000000000602082015250565b6101a981610147565b81146101b457600080fd5b50565b610409806101c66000396000f3fe608060405234801561001057600080fd5b50600436106100415760003560e01c8063251c1aa3146100465780633ccfd60b146100645780638da5cb5b1461006e575b600080fd5b61004e61008c565b60405161005b91906102f0565b60405180910390f35b61006c610092565b005b61007661020b565b6040516100839190610295565b60405180910390f35b60005481565b6000544210156100d7576040517f08c379a00000000000000000000000000000000000000000000000000000000081526004016100ce906102b0565b60405180910390fd5b600160009054906101000a900473ffffffffffffffffffffffffffffffffffffffff1673ffffffffffffffffffffffffffffffffffffffff163373ffffffffffffffffffffffffffffffffffffffff1614610167576040517f08c379a000000000000000000000000000000000000000000000000000000000815260040161015e906102d0565b60405180910390fd5b7fbf2ed60bd5b5965d685680c01195c9514e4382e28e3a5a2d2d5244bf59411b93474260405161019892919061030b565b60405180910390a1600160009054906101000a900473ffffffffffffffffffffffffffffffffffffffff1673ffffffffffffffffffffffffffffffffffffffff166108fc479081150290604051600060405180830381858888f19350505050158015610208573d6000803e3d6000fd5b50565b600160009054906101000a900473ffffffffffffffffffffffffffffffffffffffff1681565b61023a81610345565b82525050565b600061024d601683610334565b915061025882610381565b602082019050919050565b6000610270601483610334565b915061027b826103aa565b602082019050919050565b61028f81610377565b82525050565b60006020820190506102aa6000830184610231565b92915050565b600060208201905081810360008301526102c981610240565b9050919050565b600060208201905081810360008301526102e981610263565b9050919050565b60006020820190506103056000830184610286565b92915050565b60006040820190506103206000830185610286565b61032d6020830184610286565b9392505050565b600082825260208201905092915050565b600061035082610357565b9050919050565b600073ffffffffffffffffffffffffffffffffffffffff82169050919050565b6000819050919050565b7f596f752063616e27742077697468647261772079657400000000000000000000600082015250565b7f596f75206172656e277420746865206f776e657200000000000000000000000060008201525056fea264697066735822122074d0476338c2527ac9f67751c4ccbbf1f8769978ec9d918abaeddf785c4c53eb64736f6c63430008010033",
  "immutableReferences": {},
  "source": "// SPDX-License-Identifier: UNLICENSED\r\npragma solidity ^0.8.1;\r\n\r\n// Uncomment this line to use console.log\r\n// import \"hardhat/console.sol\";\r\n\r\ncontract Lock {\r\n    uint public unlockTime;\r\n    address payable public owner;\r\n\r\n    event Withdrawal(uint amount, uint when);\r\n\r\n    constructor(uint _unlockTime) payable {\r\n        require(\r\n            block.timestamp < _unlockTime,\r\n            \"Unlock time should be in the future\"\r\n        );\r\n\r\n        unlockTime = _unlockTime;\r\n        owner = payable(msg.sender);\r\n    }\r\n\r\n    function withdraw() public {\r\n        // Uncomment this line, and the import of \"hardhat/console.sol\", to print a log in your terminal\r\n        // console.log(\"Unlock time is %o and block timestamp is %o\", unlockTime, block.timestamp);\r\n\r\n        require(block.timestamp >= unlockTime, \"You can't withdraw yet\");\r\n        require(msg.sender == owner, \"You aren't the owner\");\r\n\r\n        emit Withdrawal(address(this).balance, block.timestamp);\r\n\r\n        owner.transfer(address(this).balance);\r\n    }\r\n}\r\n",
  "sourcePath": "C:\\xampp\\htdocs\\crypto\\contracts\\contracts\\Lock.sol",
  "compiler": {
    "name": "solc",
    "version": "0.8.1+commit.df193b15.Emscripten.clang"
  },
  "schemaVersion": "3.4.16",
  "updatedAt": "2024-01-11T07:57:36.988Z",
  "devdoc": {
    "kind": "dev",
    "methods": {},
    "version": 1
  },
  "userdoc": {
    "kind": "user",
    "methods": {},
    "version": 1
  }
}